:020000022000DC
:1060000000000120756302005D6302005F6302000F
:106010006163020063630200656302000000000028
:1060200000000000000000000000000067630200A4
:1060300069630200000000006B6302006D630200F0
:10604000AD8302006F630200E58702006F63020008
:106050006F6302006F630200618602006F630200DB
:106060006F6302006F6302006F6302006F630200E0
:106070006F6302006F6302006F6302006F630200D0
:106080006F630200297102006F6302006F630200F8
:10609000C5710200619A0200219C02006F63020038
:1060A0006F6302006F6302006F6302006F630200A0
:1060B0006F6302006F630200000000000000000038
:1060C0006F6302006F6302006F6302006F63020080
:1060D0006F6302006F6302006F6302000000000044
:1060E00000000000000000000000000000000000B0
:1060F00000000000000000000000000000000000A0
:10610000000000000000000000000000000000008F
:10611000000000000000000000000000000000007F
:10612000000000000000000000000000000000006F
:10613000000000000000000000000000000000005F
:10614000000000000000000000000000000000004F
:10615000000000000000000000000000000000003F
:10616000000000000000000000000000000000002F
:10617000000000000000000000000000000000001F
:10618000000000000000000000000000000000000F
:1061900000000000000000000000000000000000FF
:1061A00000000000000000000000000000000000EF
:1061B00000000000000000000000000000000000DF
:1061C00000000000000000000000000000000000CF
:1061D00000000000000000000000000000000000BF
:1061E00000000000000000000000000000000000AF
:1061F000000000000000000000000000000000009F
:10620000354936480A1A02D0072291438D4634494F
:1062100034480A1A06D00722914381F309880222E2
:1062200082F3148830483149314A00F044F831484B
:106230003149324A00F03FF831483249324A00F0E1
:106240003AF832483249334A00F035F83248334997
:10625000334A00F030F833483349344A00F02BF821
:1062600033483449344A00F026F83448344900228F
:1062700000F02CF833483449002200F027F8334866
:106280003349091A082902DB002202604160314AC1
:1062900090471F481F49884205D00268043003B464
:1062A000904703BCF7E700208646EC46002000211B
:1062B000294A9047FEE7884207D0521A05D0037852
:1062C00001300B700131013AF9D17047884202D098
:1062D00002700130FAE770470000012000E0002062
:1062E00000000120000001209CAD0200A818002041
:1062F00004190020D4630200D46302005AA10200F2
:106300009CAD0200A8180020A8180020F8A10200E7
:10631000F8A10200F8A10200F8A10200F8A1020011
:10632000F8A10200F8A10200F8A102009AAD020053
:10633000F8AD0200041900200419002004190020FF
:10634000F9210020FC210020FC210020FC2100205C
:10635000FC4100209D63020089940200FEE7FEE7F5
:10636000FEE7FEE7FEE7FEE7FEE7FEE7FEE7FEE705
:10637000704700BF1048804710484FF0070188431E
:1063800085460F4880470F48016841F4700101605D
:10639000BFF34F8FBFF36F8FFFF732BF0A480B4930
:1063A0000B4A884207D0521A05D0037801300B708F
:1063B0000131013AF9D170477163020000000120F8
:1063C000D97D020088ED00E0F8A10200A8180020A5
:0463D000A8180020E9
:1063D400F0B595B01D46164608460C4601F012FC71
:1063E4001A9B0D93CDE9086500252B46082205A9C3
:1063F40020460A958DF82C500C9501F020FC079B43
:106404000293069B03939DF814308DF8115003F00A
:106414000302012A1DD1BDF81420059DC3F3C20354
:10642400C2F383168DF81030B20008230EA920465B
:1064340001F005FCC5F3952508AB0093324602AB89
:106444000EA9284600F0D8FB204601F0DFFB15B06A
:10645400F0BD022AF8D1BDF81650C3F3C203C5F348
:1064640089158DF810300827082D2E4628BF0826D8
:106474003B4632460EA9204601F0E1FBAD1B08ABBA
:1064840002AA31460EA8374400F01AFC002DEBD1C5
:10649400DAE70000014B01221A7070474519002009
:1064A4007047000070B5124D06460FCD88B06C469B
:1064B4000FC495E80F00002E84E80F004FF0FF335F
:1064C4004FF00602CDE90023CDE90233094A0A4818
:1064D4004FF0EB7308BF00226946069301F0F0FE0B
:1064E40008B100F071FD054B1E7008B070BD00BF0F
:1064F400F8A1020099640200A818002004190020E1
:1065040007B5044B0093044A4023FFF761FF03B02F
:106514005DF804FB216502000519002038B50D4B18
:106524000D4D002018700D4804782D5DD2B21C4624
:1065340065B1043002F082FD08B100F045FD084B5E
:106544001A7812B12378002BFBD038BD0C3002F03E
:1065540077FBF1E74519002070200020A8180020DF
:106564000419002008B50848084A0378D35C3BB1F5
:10657400043002F001FDBDE808400020FFF792BF9F
:106584000C3002F0FBFAF6E7A81800207020002077
:106594000120FFF787BF000008B5FFF7F9FF0448A3
:1065A400042100F091FA034B01225A7108BD00BF87
:1065B400E8A10200BC180020037813F0040216D0EE
:1065C40003F00303012B03D0022B09D001207047F1
:1065D4000A6800880232C0F3831002440A60F5E7B7
:1065E4000B684288023303EB92130B60EEE710460C
:1065F400704700002DE9F04F87B000230446861C45
:106604000DF107000F4615468DF8073000F0D0FF56
:10661400454801683960D0E90132134401335B1AFB
:10662400824600F21C4700F5836900F21448B34225
:106634001CD30020002D73D004F00F039B0143F002
:10664400050363F30F00DAF80020DAF8083013408A
:10665400033316444AF823009DF80700CAF8006083
:1066640000F0CAFF012007B0BDE8F08F01213846D1
:1066740000F0FBFF484601F010F8404601F00DF829
:10668400DAF80400DAF808B0029000EA0B000330EC
:106694000AEB800002A9FFF78FFF029B50BB0BEAB5
:1066A40003020AEB820203F1020CD2680392013363
:1066B40003EA0B0B0AEB8B0B02F00302012ADBF853
:1066C4000C10CDF808C023D0022A16D083464046C9
:1066D40000F0E6FF10B1029BCAF804305946384670
:1066E40000F0C3FFDAE901231344DAF80020013390
:1066F4009B1A9CE70BEA0300C9E7BDF80E30C3F30D
:10670400891303334FEA114B0CEB93030293DEE737
:10671400BDF80C30C3F383134FEA114B6344F5E720
:10672400A40544F006008EE7181A00200B4B0C4811
:10673400FF2210B59A600022C3F81824C3E900228E
:10674400C3F8142483F8202401F015FA044610B980
:10675400044801F0BDFA204610BD00BF181A0020FD
:106764007CA102004CA2020030B50A4C71B10A4A65
:106774000A49121BD20800239A4201D1002030BDDD
:1067840031F82350854202D00133F5E7034654F82B
:106794003300F4E790A10200E8A10200A818002049
:1067A400094B013903EBC000032909D8DFE801F0E4
:1067B4000A02040604207047007970474079704744
:1067C400002070470220704790A10200034BD3E9D8
:1067D4000030C31A58425841704700BF181A0020AD
:1067E4002DE9F04387B0FFF7F1FF0646002840F09B
:1067F400F9807D4DC5F81804BFF34F8F6B68AC6802
:1068040002932340033305EB830002A9FFF7D4FE70
:10681400029B18B1D5F81824002A5FD004EA0302B9
:10682400991C013305EB8202234005EB8303D268F4
:10683400DB68049302F00303022B0392029160D1FC
:10684400BDF80E306948C3F38917502FB84628BFE6
:106854004FF0500868F38F1308F10801ADF80E30BB
:1068640001F0A1F90646002800F0A78001F0CAF95A
:106874000023082203A9304601F0D7F9029924EA3B
:1068840001020132B8EB820F4FEA820332D95FFA78
:1068940088F85BB32140DCB2A8EB040803315FFA4B
:1068A40088F9A046524C05EB810108234246304644
:1068B40001F0BBF934B108F108034A4621463046D9
:1068C40001F0B3F9029B033703EB97070297D5F85E
:1068D4001834002B49D1D5F8104459E02A689A425B
:1068E4008FD86A60304607B0BDE8F08340491C4643
:1068F4009946DAE70C40E11C0823424605EB810186
:10690400DDE7012B59D1BDF80C303848C3F38311AE
:10691400062928BF062161F3891302318900ADF8E5
:106924000C3001F040F90646002846D001F06AF91F
:106934000023082203A9304601F077F90027BDF8A7
:106944000C20C2F38312BB00974203F10803BED2AA
:1069540002994A1C21400331029205EB8101042271
:10696400304601F062F90137E9E7304601F04EF9AB
:10697400FFF72CFF80F00100C6B2B3E7E3685B7950
:1069840023B1236831461B6820469847E3681C6896
:10699400002CF3D1304601F039F90DF107008DF8E0
:1069A400074000F005FED5F818340BB9029B6B6064
:1069B4009DF8070000F020FEDAE7D5F8104454B93A
:1069C4000C4B0D480D49C01AC008000440F00200E9
:1069D40000F062F8CCE7236820469B689847E36898
:1069E4001C68ECE700267DE7181A00207CA1020051
:1069F400241A002090A10200B8A1020035A20200CE
:106A04002DE9F74F224D04460F46924601A9012273
:106A14001846D5F808909B46FFF7ECFD20B3019E7D
:106A24004FF00008B21CD84508EB020126D11948E2
:106A3400002100F0F7FD80F31000000440EA144048
:106A4400E400731C04F0380403EA090306EA0906A7
:106A540044F0010405EB8303033644EA881444EA52
:106A64008724D86045F8264095F820341BB1FFF7F9
:106A7400B7FE0028FBD103B0BDE8F08F09EA01019D
:106A840005EB81015AF82830CB6008F10108CAE708
:106A9400181A0020341E002000231A46FFF7B0BF46
:106AA40007B50123019201AAFFF7AAFF03B05DF81D
:106AB40004FB07B5CDE9002302236A46FFF7A0FFD4
:106AC40003B05DF804FB000030B50F49D1F8102481
:106AD40003460020144634B9DC6820714AB9C1F871
:106AE4001034226030BDE4682579854206D02468DC
:106AF400F1E7D268116821601360F3E701300A28D6
:106B0400E8D14FF0FF30EDE7181A0020094A38B5F4
:106B14000123D2F8104482F820341D4604B938BD4C
:106B2400E3685D71236820465B689847E3681C68E6
:106B3400F4E700BF181A002007B503460846197A7F
:106B4400052911D05B7A2BB1094A0A49019000F05A
:106B54000AFE01980849019000F005FE019803B06F
:106B64005DF804EB00F0F4BD002AF8D0F2E700BFB2
:106B740058A202005DA202007DA2020030B5C388C3
:106B840085B004460D4633B1144A00921449154A9F
:106B9400284600F0E8FD217A05291DD0637A4BB11F
:106BA400A088FFF7FDFD104B104953F8202028461C
:106BB40000F0D9FD227A0E4BA08853F822200392CC
:106BC4000021FFF7D1FD039A0A490346284605B080
:106BD400BDE8304000F0C7BD05B030BD58A202008A
:106BE40068A2020060A20200E4A202005DA2020008
:106BF40008A3020080A202002DE9F04385B01F46DD
:106C04000C9D002395F80C902B7306460C46904679
:106C140029463846FFF7B2FFB8F1060F09D8DFE876
:106C240008F00412181F283340003146284600F0AB
:106C34009AFD002229463846FFF77EFF85F80C901E
:106C440005B0BDE8F08322683146284600F08BFD8C
:106C5400EFE7D4E900233146284600F084FDE8E755
:106C6400A36800933146D4E90023284600F07BFD55
:106C7400DFE7E3680193A36800933146D4E9002376
:106C8400284600F070FDD4E723690293E36801937A
:106C9400A36800933146D4E90023284600F063FD3D
:106CA400C7E76369039323690293E3680193A368C5
:106CB40000933146D4E90023284600F054FDB8E798
:106CC40008292DE9F74F80460E4617461C4639D849
:106CD400002593F80C901D7319461046FFF74EFFDC
:106CE400DFF880A0DFF880B0AE422ED918F8052076
:106CF4005946204600F037FD0135082DF4D11849D6
:106D0400DFF868A0DFF868B0204600F02CFD00250D
:106D1400AE421FD918F805200192104603F08AF9F3
:106D24000028019A594608BF2E22204600F01BFD78
:106D34000135082DECD1012221463846FFF7FCFE2F
:106D440084F80C9003B0BDE8F08F5146204600F063
:106D54000AFDD1E75146204600F005FDE8E700BFF3
:106D640094A2020090A202008AA2020092A202004F
:106D740096A202002DE9F04F364E87B04FF000097D
:106D8400354B1B785FFA89F5AB4202D807B0BDE8F2
:106D9400F08F324BD3F800A01AF835000124D6E95D
:106DA400001EA0F12002C0F1200304FA02F224FA2A
:106DB40003F3134304FA00FC059301EA0C03009364
:106DC400059B0EEA03030193DDE9002313430AEB59
:106DD400C50B3BD0059B21EA0C012EEA0303C6E94F
:106DE400001301F031FC01461AF835001C4DA0F1E6
:106DF4002002C0F1200304FA02F224FA03F313433D
:106E0400D5E900C28440134004EA0C040393A0F1C2
:106E14002002C0F1200321FA03F3029401FA02F8DC
:106E240048EA0308DDE9023401FA00F7444508BFE3
:106E3400BB420BD1DBF8043043B19BF80120541E54
:106E440062426241551A69426941984709F1010950
:106E540096E700BF081F0020D41E0020101F00204A
:106E6400001F0020F8B506461E4800F091FBC0BB89
:106E74000125A6F12004C6F1200325FA03F305FA3F
:106E840004F41C43184BD3E900C2B5400CEA0500D6
:106E940002EA040101431F461DD1304601F0D4FB30
:106EA400124BD3E9001288B129432243C3E90012EB
:106EB400D7E900231C430E4B0A4819681543C7E958
:106EC40000540022BDE8F84000F01ABB21EA050195
:106ED40022EA0402EAE72CEA050522EA0404C3E9EB
:106EE4000054F8BDDC1E0020081F0020001F0020F5
:106EF400D81E0020042A2DE9F34105460C46164607
:106F040039D901F0E1FAD8B11C4B1D491D601D4B64
:106F1400DFF884801C701C4B00221E600023C1E932
:106F240000231A49C1E90023013CE4B200260327E7
:106F3400FF2C0CD1164A1748002100F0CFFA03E0C9
:106F440001F088FA0028DFD002B0BDE8F08105EB3B
:106F5400C40315F834009B788DF80660424601A9F5
:106F64008DF804708DF8053001F0B8FA013CE4B2F4
:106F74000028DDD0E8E70720E6E700BF101F002067
:106F8400001F0020D41E0020D81E0020081F00204F
:106F9400796D02001CA30200696E020070B5084DF1
:106FA400084E00242B789C4201D3002070BD336826
:106FB400012113F8340001F003FB0134F2E700BFB0
:106FC400D41E0020101F00201FB50021039001AA29
:106FD40044F20100CDE9011100F004F805B05DF8B8
:106FE40004FB000010B572B6FFF790FDFFF7F8FB45
:106FF4000028FBD1104B114C1149E41AE408240475
:1070040044F00100FFF748FD0E4B1B68DB0700D579
:1070140000BE0D4944F00200FFF73EFDBFF34F8F61
:107024000A490B4BCA6802F4E0621343CB60BFF316
:107034004F8F00BFFDE700BF90A10200B8A102007E
:1070440020A30200F0ED00E02CA3020000ED00E01C
:107054000400FA05094A537891780133DBB2994266
:1070640008BF0023117899421FBF0370507818237A
:1070740003FB002014BF043000207047141F0020BD
:1070840073B5054600240DF107000E468DF8074040
:1070940000F08EFA0DF10600FFF7DCFF90B10670E8
:1070A400094B9DF8062045605A709DF8070000F0D2
:1070B400A3FA24B9054B4FF48012C3F800212046EB
:1070C40002B070BD0424F0E7141F002000E100E0CA
:1070D400024B4FF43C6043F00103184740A3020005
:1070E40038B50C4B0C4C4FF40032C3F8802001250A
:1070F4004FF48033C4F84833C4F808336560FFF7AD
:10710400E7FF064BA56000241C60FFF7E1FF044B7A
:107114001C7038BD00E100E0001001403020002068
:1071240021200020F8B51F4B1F491B680025C1F81A
:107134004051C1F84451C1F84851C1F84C51C1F80B
:107144000051C1F804514BB3D1F8044517490968FB
:10715400641A24F07F442F461A68A24209D8A41A5C
:1071640015441A7CDE691AB1D3E905201F749047CF
:10717400AEB90F4A0F4B11781B788B4205D10133FE
:10718400DBB2022B08BF0023137012780A4B43F8BA
:1071940022500A4B4FF48012C3F80021F8BD334645
:1071A400DAE700BF34200020001001403020002026
:1071B4002D2000202C2000202420002000E100E0CD
:1071C4002DE9F04FA24AA34913780978A24D9942B8
:1071D40085B03CD00133DBB2022B08BF002313700F
:1071E4009E4912789E4B0F6853F822003B1823F0F7
:1071F4007F4300220B602B6816461446944613B94D
:1072040042B12B6006E0196881420ED902B12B60AD
:10721400091A196001272B68DFF84CA201934FF07B
:107224000008BEB9DFF848B262E0401A0C44D968DD
:10723400D3F81CE0C3F800C031B13A1922F07F4200
:10724400C3E90121DE611E4673460122D7E7002609
:107254003746E0E73446F669804A63681268DFF827
:1072640014C2A068991A21F07F41614500F2A880F8
:1072740001442160012222742A680023C4E90133F5
:10728400E361002A40F0A5802C60CAE79BF8021055
:107294005A1CD2B291428BF8002004BF00228BF812
:1072A4000020182202FB03B32A6819799C6802297A
:1072B40077D0032900F08180012919D1207CB8B945
:1072C400D3E90312A2605A69E2609A69654BA2612C
:1072D4001B78002B0CBF0B4603466360BCE78C4253
:1072E40000F094808946C9690029F8D100232374E9
:1072F4009BF800309BF801209A42C7D12B68B8F163
:10730400000F04D1019A9A4201D1002F43D0002BDF
:1073140079D0D3F800A0544D504BD5F804751C68AF
:10732400DFF854813E1B98F8003026F07F46033680
:107334009BB94FF48033C5F84433C5F804334B4B41
:107344004FF400324FF00109C3F880211A60C5F8E8
:107354000090FFF7BDFE88F80090B2452CBF54445E
:10736400A41924F07F44C5F84045D5F80435DB1B47
:1073740023F07F43E41B033324F07F44A3420AD960
:10738400D5F80435C5F84035FFF7A2FE374B4FF466
:107394000032C3F80021334B00221A7005B0BDE857
:1073A400F08F114691469FE71174D2690123002A98
:1073B400FAD1002B9CD02A609AE700231946F6E7FD
:1073C400D31A23F07F43834234BFC31A00232360BC
:1073D40050E721681368994213D8591A1160E26181
:1073E40052E7091AD8691A4638B103461868884220
:1073F400F7D3401A1860184613462160E061DC6137
:107404000FE71346F2E7FFF76BFEC4E74C4511D1D3
:10741400D3692B6073B9DFF844E00120CDE902128F
:10742400CAF80800CEF800300E4B1870FFF750FE73
:10743400DDE902120B68C969C9F81C1011B10868AA
:1074440003440B602B68934218BF4FF001084DE7CB
:107454002C2000202D20002034200020302000206B
:1074640024200020202000200010014000E100E042
:10747400141F0020FEFF7F002120002008B5FFF725
:107484002FFE104B00200B2218809A700E4B1860B0
:107494000E4B18700E4B18700E4B4FF48012C02117
:1074A400C3F8802183F814131A6002F18042A2F514
:1074B4006F22C2F8080583F81113074BD2F804258C
:1074C4001A6008BD141F0020342000202C20002046
:1074D4002D20002000E100E030200020074B9B78A5
:1074E4004BB132B128B10368187C20B959745A6180
:1074F4007047072070470820704700BF141F002002
:107504002DE9F743DFF8848098F8023005460E46EB
:107514001746ABB3A0B3042930D9436983B3437C82
:107524000024012B0DF107000CBF8946A1468DF8FC
:10753400074000F03DF80DF10600FFF78BFDD8B1D0
:10754400012303700F4B4560D3F80435C0E9049759
:10755400C0E902369DF8063088F801309DF807002E
:1075640000F04AF824B9084B4FF48012C3F8002104
:10757400204603B0BDE8F0830424EFE70724F7E7CF
:107584000824F5E70010014000E100E0141F00208A
:10759400064A92783AB130B1426922B100220274AB
:1075A4000221FFF76DBD0820704700BF141F0020A3
:1075B40070B5EFF3108672B60C4A946801239CB937
:1075C40093600B4B0B4DD3F8801029401160C3F826
:1075D4008050D3F8841051604FF0FF32C3F88420F8
:1075E400047006B962B670BD0370FAE73820002053
:1075F40000E100E0FC06FFBD084B9A6810B55AB1E3
:1076040050B9EFF3108172B6054A1C6814605C68C7
:107614005460986001B962B610BD00BF38200020E4
:1076240000E100E010B5034653E8000F0A4643E8C2
:10763400002494F0000FF7D110BD10B5034653E8B1
:10764400002F42EA010043E8000494F0000FF6D151
:1076540010BD10B5034653E8000F00EA010243E8E9
:10766400002494F0000FF6D110BD10B5034653E882
:10767400002F02EB010043E8000494F0000FF6D160
:1076840010BD10B5034653E8002FA2EB010043E8F8
:10769400000494F0000FF6D110BD0121FFF7CDBF17
:1076A4000021FFF7D6BF10B590B1D0E901230168DE
:1076B4009B1ADBB20A60013BDBB2FF2B026802D1EA
:1076C4000020107110BD11684C1C14600B70F2E79F
:1076D4000E20F7E737B5054600240DF107008DF8B5
:1076E4000740FFF765FF2A686B68116899420ED955
:1076F400481E106011F8014CEB68298A01FB043420
:10770400AB6811791B1ADBB2994238BF13719DF82B
:107714000700FFF771FF204603B030BD37B50546BB
:1077240000230DF107000C468DF80730FFF740FFEA
:107734002A681368591C1160E968641A298AB4FB21
:10774400F1F41C709DF80700FFF756FF03B030BD3D
:10775400826810B504462AB14369016800699847F4
:107764000023A36010BD0EB403B5039921B104AB8B
:1077740001AA019300F06EF802B05DF804EB03B0C7
:107784007047826830B40468551C8560A154D0E900
:1077940001329A4202D330BCFFF7DABF30BC7047E3
:1077A4002DE9F84F9846DDE90A43154682460F460F
:1077B4000A464FF00109AA420FD2C14538BFC1465B
:1077C40013F0010B01D16CB900240126B8F1010FAB
:1077D4001BD908F1FF386E43F8E709F10109B2FB40
:1077E400F5F2E8E79B070ED5B8F1000F0CBF302681
:1077F4002026A145E9D2013C31465046FFF7C1FF9E
:10780400002CF6D1E0E72026F3E7B7FBF6F39D4220
:10781400E1D9DFF83C80B7FBF6F3504618F80310C3
:1078240006FB1377FFF7ADFF3346AB42B6FBF5F625
:10783400F1D2BBF1000F02D00CB1A14501D3BDE8D8
:10784400F88F20215046013CFFF79BFFF4E700BF6F
:1078540046A302002DE9F74F05461746884600293E
:1078640000F0428118F8011B49B92B7B002B00F072
:107874003B81284603B0BDE8F04FFFF769BF2529D7
:1078840040F0B780002698F800302D2B424608F1CE
:10789400010823D0302B24D02B2B25D000242A2BD5
:1078A40002F1010123D13B681A1D1B683A601C4494
:1078B4000A4613782E2B26D101324FF0000A1046C7
:1078C40010F8011BA1F1300CBCF1090F1DD80A23DB
:1078D40003FB0A13A3F1300A0246F0E746F001065F
:1078E400D1E746F00206CEE746F00406CBE711F8EE
:1078F400013CA3F130000928DBD80A2202FB04343E
:10790400303C0A46CBE74FF0000A12F8011B01F0A5
:10791400FB0068289046F8D0782909D86F290CD83C
:10792400632962D022D8252963D0582900F08880A1
:1079340098F80030002B95D197E770390829F7D8CB
:1079440001A353F821F000BFC77A02003579020081
:1079540035790200557A020035790200337A020043
:107964003579020035790200457A0200642901D094
:107974006929DDD13A68D2F80090111D89EAE972CB
:107984003960A2EBE9724FF0010B092A35DCD345CB
:1079940038BFD3462CB1B9F1000F01DB720700D513
:1079A400013CB30702D5BAF1000F03D0F00701D4AC
:1079B4004CBB0024B9F1000F2DDAC9F100092D21C7
:1079C4002846FFF7DEFE06F00302022A04D1BAF1CC
:1079D400000F01D11CBB0024CDE9004653460A2206
:1079E40049462846FFF7DCFEA2E73B681A1D1978D2
:1079F4003A602846FFF7C5FE9AE70A230BF1010B0C
:107A0400B2FBF3F2C1E7A345D4D220212846013CBE
:107A1400FFF7B7FECCE77107D5D52B21D0E7A345F7
:107A2400DAD230212846013CFFF7ABFED2E73968B1
:107A3400CDE900460A1D3A6053460A220968D0E798
:107A440039680A1D3A60CDE9004653461022F5E72D
:107A54003B681A1D3A6016F00106D3F8009028D14D
:107A6400B9F1000F03D0484602F045FB0646B44284
:107A740000D904BB09F1FF3919F8011F00293FF4AB
:107A840057AF2846FFF77DFEF6E728460136FFF795
:107A940078FE19F806100029F7D1A642BFF448AFC2
:107AA400002C3FF445AF20212846013CFFF769FE36
:107AB400F3E70026EDE720212846013CFFF761FEAD
:107AC400D5E73B681A1D3A60302128461C68FFF749
:107AD40058FE78212846FFF754FE00220823CDE9FA
:107AE4000032214610227CE703B0BDE8F08F00BFCE
:107AF4002DE9F84FB0F806A04579D2F800B09DF80A
:107B040028900AFB05F5043D88460BEB0301A942C6
:107B140003F1040488BFA5EB030BB4FBFAF6074694
:107B24000AFB1644C2F800B04EB9AAEB04055D4541
:107B340028BF5D46BBF1000F04D1BDE8F88F3F6854
:107B4400013EF1E7043408EB06003C442A46B9F14F
:107B5400000F0DD02146ABEB050B02F070FADA45AD
:107B64002E443F6855464FF0000428BF5D46E1E7C8
:107B740001462046EFE7FFF796BDF8B54679014682
:107B8400721E0546002393422D6803D30024A642A7
:107B940002D8F8BD0133F6E70F682846FFF7BEFDAB
:107BA40001343946F3E72DE9F843068ACD1C07462C
:107BB400FFF790FD043E35440446B5FBF6F5F0B1FD
:107BC4004FF48073EDB28380C680013D0760814627
:107BD4004FF00008A84512D23846FFF77BFD064651
:107BE40048B163790133637108F10108C9F80000F1
:107BF40007608146EEE72046FFF7BFFF3446204684
:107C0400BDE8F88301210430FFF72FBD10B5012131
:107C140004460430FFF735FD10F0FF0F04D1204671
:107C2400BDE81040FFF7A9BF10BD1FB503920022A5
:107C3400009203AAFFF75CFF05B05DF804FB1FB5D3
:107C440003920122009203AAFFF752FF05B05DF8E8
:107C540004FB41DF70470000064B10B500241C7084
:107C6400054B1C60BFF35F8F0449054800F039F8E9
:107C7400204610BD4C2000205020002060A30200AC
:107C84004420002007B500230DF107008DF80730CC
:107C9400FFF78EFCF1EE103A23F09F03E1EE103A69
:107CA400BFF35F8F094B4022C3F884219DF807007E
:107CB400FFF7A2FC01F098FF20B1FFF7CAFF03B061
:107CC4005DF804FB20BF40BF20BFF8E700E100E0FF
:107CD400836800225A60C3E904229A60DA601A6059
:107CE40070470B684A684360934208BF00230160F1
:107CF40008BF43607047436843B1026891685268A3
:107D04000B449342436004BF002343607047000068
:107D140010B50D49A1F59472914201D800200FE0ED
:107D24008C1AE30F03EBE4035B1002EBC30452F879
:107D34003330834205D802D204F10802ECE76068CC
:107D440010BD2146E8E700BF64A8020008B5FFF7AC
:107D5400DFFF024B002808BF184608BD26A7020013
:107D64000C4B1B78062B10D10B4B1B681A070CD13C
:107D74000A4B186800F0F003302B08D000F0E00044
:107D8400A0F1400358425841704700207047012039
:107D9400704700BFE00F00F0E40F00F0E80F00F0C0
:107DA400094B1B78062B0CD1084B1B681A0708D10A
:107DB400074B186800F0F000A0F130035842584116
:107DC40070470020704700BFE00F00F0E40F00F0A0
:107DD400E80F00F008B5FFF7C3FF28B17D4B7E4ADA
:107DE4001B68C3F304231360FFF7DAFF10B17B4B66
:107DF4007B4A1A60FFF7B4FF28B17A4B7A4A1B68B2
:107E0400C3F342331360FFF7CBFF20B1774AD36843
:107E140023F08073D360FFF7A3FF40B14FF080439A
:107E24000022C3F80C21C3F81021C3F83825FFF74A
:107E3400B7FF10B16E4B03221A60FFF7B1FF40B1D8
:107E44006C4B05221A6001229A6700229A603F2235
:107E54005A60694B1B78062B50D1684B1B68190775
:107E64004CD1674B1B6803F0F003502B46D14FF005
:107E74008052644BD2F80414C3F82015D2F80814C5
:107E8400C3F82415D2F80C14C3F82815D2F810142A
:107E9400C3F82C15D2F81414C3F83015D2F81814FA
:107EA400C3F83415D2F81C14C3F84015D2F82014C2
:107EB400C3F84415D2F82414C3F84815D2F828148A
:107EC400C3F84C15D2F82C14C3F85015D2F830145A
:107ED400C3F85415D2F83414C3F86015D2F8381422
:107EE400C3F86415D2F83C14C3F86815D2F84014EA
:107EF400C3F86C15D2F84424C3F87025FFF730FF9B
:107F040028B1414B414A1B6803F04F031360FFF74C
:107F140027FF48B14FF08043D3F80024D20744BF71
:107F24006FF00102C3F80024394B1B68062B08D1FB
:107F3400384B1B68062B01BF374A136843F4806330
:107F44001360364AD2F8883043F47003C2F888309C
:107F5400BFF34F8FBFF36F8F4FF01023D3F800227E
:107F6400002A03DBD3F80432002B2FDA2C4B012236
:107F7400C3F80425D3F80024002AFBD04FF01022C4
:107F84001521C2F80012D3F80024002AFBD04FF0C8
:107F940010231522C3F80422214B1A46D3F80014E7
:107FA4000029FBD00021C3F80415D2F80034002BBB
:107FB400FBD0BFF34F8F19491A4BCA6802F4E06231
:107FC4001343CB60BFF34F8F00BFFDE7164B174A37
:107FD4001A6008BD240300104035014074C00740F6
:107FE4000DF0ADBA440200103C050040F0ED00E095
:107FF400A005004010560040E00F00F0E40F00F030
:10800400E80F00F000C0004058020010E40E0040E9
:1080140030010010340100103C17004000ED00E076
:1080240000E001400400FA05C41800200090D003C9
:10803400054A4FF0A043105CD3F8043523FA00F04E
:10804400C04300F00100704764A80200044B1A5CAE
:10805400012393404FF0A042C2F80C35704700BF93
:1080640064A80200044B1A5C012393404FF0A04221
:10807400C2F80835704700BF64A8020008B50020A4
:10808400FFF7F0FF0120FFF7EDFF0220FFF7EAFF03
:10809400BDE808400320FFF7E5BF08B50020FFF75F
:1080A400D5FF0120FFF7D2FF0220FFF7CFFFBDE885
:1080B40008400320FFF7CABF074A4FF0A041105CF5
:1080C400D1F804350122824022EA03001340C1F8AA
:1080D4000805C1F80C35704764A802000D2809D0C2
:1080E4000E2809D00F2809D010280CBF03204FF008
:1080F400FF3070470020704701207047022070470E
:10810400C20708B501460CD54FF0A0430322C3F8BB
:108114004427C3F84827C3F84C27C3F85027FFF770
:10812400ADFF8B070AD54FF0A0430C22C3F83427C8
:10813400C3F83827C3F83C27C3F8402708BD00001C
:1081440038B5074C051E04F1080318BF1C46236804
:108154002BB11A6822605B6828469847F7E738BD58
:108164005C20002020B9054B01225A70FFF7E8BFBC
:10817400012802D1014A9070F8E77047542000208A
:1081840020B9034B01225A70FFF7DABF704700BFD2
:108194005420002038B50B4C237883B90A48636017
:1081A400A3602361E36000F0D3F8054601F01CFDF1
:1081B40008B900F0D9F801232370284638BD852575
:1081C400FBE700BF542000206981020037B50B4C47
:1081D40000230DF107008DF80730FFF7E9F9E36894
:1081E400013BE360E56815B900F0D2F8A5709DF88D
:1081F4000700FFF701FA03B030BD00BF5420002090
:10820400012813B508D003281CD018B9104B01223B
:10821400C3F8802002B010BD0E4C00230DF10700FE
:108224008DF80730FFF7C4F923780BB9FFF7B2FFD5
:10823400E3689DF807000133E3600123A370FFF7AF
:10824400DBF9E7E700F090F8FFF7C0FFE2E700BFD3
:1082540000E100E0542000201FB503788DF80030C1
:1082640043680193037A8DF80830C368054A039381
:10827400054B684653F8213052F82110984705B051
:108284005DF804FB682000206C2000201FB50378F3
:108294008DF800304368019383688DF80830C36813
:1082A400054A0393054B684653F8213052F82110D0
:1082B400984705B05DF804FB682000206C2000207E
:1082C400F0B5194B90F800C091F81DE043F82C204C
:1082D400164B16460A6943F82C20154B03F80CE09C
:1082E4000C4607460FCC89B06D460FC594E80F00C5
:1082F40085E80F00CDF810C0BEF1000F09D0002EA4
:108304000C4A694608BF3246381D00F06DFD09B0BD
:10831400F0BD002E084A694608BF324607F10C003A
:1083240000F06CFBF3E700BF6C2000206820002005
:10833400702000205D8202009182020000F18040E2
:10834400002382B0036003680193019B02B070476D
:10835400044A137923B901211060918018467047AB
:108364008520704774200020084B1A68D20706D471
:10837400C02283F800230122C3F880211A604FF041
:1083840080430122C3F81825704700BF00E100E0D4
:10839400044B01221A604FF08042D2F81834DB03F8
:1083A400FBD470470C000040124B1B6810B573B12E
:1083B4004FF48070FFF7C2FF4FF080430122C3F8EF
:1083C40008230D4B587910B95A711B6898470B4B09
:1083D4001B6873B14FF48270FFF7B0FF4FF0804316
:1083E4000222C3F80823044BBDE810401B68012097
:1083F400184710BD00010040742000200401004013
:1084040000F1804000F5C040002382B0036003689F
:108414000193019B02B07047800000F1A040D0F8A6
:10842400002722F44032C0F80027D0F8003743EA8E
:108434000141C0F800177047054B4FF0FF32072881
:1084440043F8202084BFC01880F84820704700BF3C
:108454007C20002010B5184C94F8583053BB04F11C
:1084640030032021FF22013911F0FF0103F8012B11
:10847400F9D1C8B2FFF7E0FF01310C29F9D1042288
:1084840000210E4801F004FE0D4BC02283F80623A0
:108494004022C3F880214FF4BE701A60FFF7B0FF8A
:1084A400084B4FF00042C3F80423012384F85830EA
:1084B400002010BD0820FCE77C200020D0200020F4
:1084C40000E100E000600040034B93F858000038DE
:1084D40018BF0120704700BF7C200020F0B5364D46
:1084E4002C1894F93040002C64DA8C78C4F34004DE
:1084F400002C0BBF082300230C260826B34201D10D
:108504000420F0BD55F8237001373FD12E1845F8EB
:10851400232086F8303014B9EA1882F848008A78A3
:10852400540713D4D60733D5820002F1A042D2F8FF
:10853400004724F00204C2F80047204EC20800F0AD
:1085440007070124BC40B75C3C43B4548A780C78D8
:1085540012F0020225D09B0003F1804303F5C043CF
:108564000202D3F8101521F4473121F44071C3F805
:1085740010152404D3F8101502F4F85204F440340E
:1085840022430A43C3F810250020BAE70133B5E7B4
:108594004C7800F5E0724FF0A046A40046F8224063
:1085A400CBE7083B2B4493F8501041EA841483F83A
:1085B4005040E9E70820A4E77C200020D0200020D8
:1085C40038B51F4C251895F93020072A16DD2244AA
:1085D40092F848309B09032B0BD14FF0A043D3F8FA
:1085E4001015C14001F001010231BDE83840FFF728
:1085F40013BF012B0CBF02210321F6E7D3B2072BD3
:108604001CD8930003F1804303F5C043D3F810054D
:1086140040F00100C3F8100502F14000800080B270
:10862400FFF7EEFE51B195F9303054F823302BB1F9
:10863400012303FA02F2034BC3F8042338BD00BF3D
:108644007C200020006000404FF0A043D3F8103598
:1086540023FA00F000F00100704700002DE9F04F0C
:1086640087B000245A4D03944FF48072012102F123
:10867400804303F5C04390B21B68012B06D1D5F8A3
:1086840004330B4202D0FFF7BBFE0C430432B2F5B5
:10869400907F4FEA4101EAD14E4B1B68012B0AD16E
:1086A4004FF4BE70FFF7ACFE4FF0A04344F000441B
:1086B400D3F81035039314F0FF0F1AD0464F00255A
:1086C4000126344210D0AB0003F1804303F5C043CC
:1086D400D3F81005D3F8101557F8253023B1C1F39A
:1086E4000141C0F3042098470135082D4FEA46069E
:1086F400E7D1002C65DA00214FF0FF33CDE90413F4
:10870400354D01274FF0000A344ED1464FF0A048B2
:1087140016F9013B5A1C45D0C3F3C20106AA5018EE
:10872400DCB210F8042C03F03F0B03F0070307FA44
:1087340003F31A4236D005EB0B02A40992F9302058
:1087440055F8222052B9032C2CD10DF1100E1EF82D
:1087540001C04CEA030C0EF801C001E0032CF4D074
:108764000BF5E07110F80C0C58F821101842C1F305
:10877400014105D0022915D1032C0FD1214604E073
:1087840003290FD1032C09D102215846019209F182
:108794000109FFF741FE019A5FFA89F912B12146F6
:1087A400584690470AF1010ABAF1040FB0D1B9F161
:1087B400000F06D04FF0A043039AD3F8103593422C
:1087C40002D107B0BDE8F08F0393049B059399E7AA
:1087D400006000407C6100407C200020CC20002010
:1087E400014B1B68184700BFD82000200E4B98424D
:1087F40037B50C4602D0002003B030BD00230DF184
:1088040007008DF80730FEF7D3FE084B1D7915B924
:1088140001221C601A719DF80700FEF7EDFE002D81
:10882400E9D01120E8E700BF00200040D820002054
:10883400034B984201BF034B00221A601A71704720
:1088440000200040D82000200023435082B0435829
:108854000193019B02B070470A4610B54FF48E7124
:10886400FFF7F2FF136A9168C95C136A013313625C
:10887400C0F81C1510BD8B690A4610B54FF48471FD
:1088840023B9FFF7E1FFD0F8183510BDFFF7DCFF7F
:10889400536AD168D0F81805C854536A0133536237
:1088A400F3E700001FB501238DF80030044BCDE938
:1088B4000110D3E900126846904705B05DF804FB47
:1088C400E020002030B54B48D0F8043313F4007F87
:1088D40085B005464DD0D0F82431002B49D04FF453
:1088E4009271FFF7B1FF4FF40173C0F80833424BA4
:1088F40093F829200AB9012242603E4902228DF8E8
:108904000020D1F88024C1F8802403929A6902924D
:10891400DA6801920022C3E906226846D3E900120C
:1089240090473448D0F81C315BB133490A6A4B692B
:108934009A420A464AD291F82830002B46D1FFF7D2
:108944008BFF2C48D0F844318BB14FF4A271FFF760
:108954007BFF294B93F829200AB1012202609A690E
:108964002AB10022586AD9689A61FFF79BFF05B0C3
:1089740030BDD5F804335B07D3D5D5F80831002BC7
:10898400CFD01D4C1B482146FFF775FF636AA269CF
:108994009A422346C5D1E269E1684AB12369E3609A
:1089A4000023606AA261E3616362FFF77BFFB8E7BB
:1089B40094F829200AB901226A600E4A4FF4017022
:1089C400C2F808030022586A9A61EEE74FF48E71E8
:1089D4000848FFF739FF51690029B2D000230291FA
:1089E40091688DF80030019153616846D2E9001313
:1089F4009847A6E700200040E02000202DE9F84336
:108A04005A4B057991462C2202FB0532064692F810
:108A14002A200C469846002A40F0A4805449006855
:108A2400FFF7E4FE0746002840F09E802168336883
:108A3400481C0BD04FF0A04001228A40C0F8082502
:108A440001F5E0724FF0030C40F822C06068421C4C
:108A54001FBF00F5E0724FF0A04C4FF0000E4CF831
:108A640022E0A269C3F8242594F814C0627DBCF105
:108A7400010F4CEA0202C3F86C25C3F81405C3F8CD
:108A84000C151DD1A1684A1C1FBF01F5E0724FF0FF
:108A9400A0404FF0000C40F822C0E268501C0BD0FC
:108AA4004FF0A04C01209040CCF8080502F5E0708E
:108AB4004FF0030E4CF820E0C3F80825C3F8101556
:108AC4002C236B4308EB0302C2F80490226948F894
:108AD4000320B9F1000F32D03068227F4FF48E7139
:108AE400FFF7B2FE30684FF4A271FFF7ADFE3368B2
:108AF4002049C3F80413190B43F30733002BA8BF11
:108B040003F160404FEA5313BCBF01F00F041A484D
:108B14004FEA4212A8BF00F561404FEA8303D2B284
:108B240003F16043B4BF025580F8002303F56143A9
:108B340001F01F0101228A40C3F880211A603368C2
:108B44000422C3F800252C2303FB05830022C3E978
:108B5400062283F829205A61012283F82A20384604
:108B6400BDE8F8830827FAE71127F8E7E02000209A
:108B7400C98802008000020014ED00E0F8B5047911
:108B840000682C4D0023C0F800352C2303FB04534C
:108B94005B686BB1284BC0F8083340F30733C0F36C
:108BA40004315B0901228A402033244941F82320FF
:108BB400D0F80C65D0F81415D0F80835D0F8102585
:108BC4004FF0FF37BE42C0F8147518BF06F5E076C3
:108BD400C0F80C75C0F80875C0F810751EBF4FF0CA
:108BE400A0474FF0020C47F826C04E1C1FBF4FF0A1
:108BF400A04601F5E071022746F82170511C1FBF01
:108C04004FF0A04102F5E072022641F822605A1C9E
:108C14001FBF03F5E0734FF0A042022142F8231076
:108C2400FFF706FE2C2303FB0454002384F82A30A8
:108C34006360F8BDE02000208402020000E100E04F
:108C44002DE9F843204B07794FF02C0909FB073431
:108C5400054666699846002E33D100686261A160BA
:108C640026624FF48E7184F82860FFF7EDFD2868C2
:108C7400012383602146FFF7EFFD6368A14683B9B2
:108C84002868226A63699A4211D32B68D3F81C219D
:108C9400002AFBD00122DA602C2303FB0783002285
:108CA4005A613046BDE8F88394F828303BB9D0F8CF
:108CB4001C31002BF8D04946FFF7CEFDE1E70F2623
:108CC400EAE71126EDE700BFE0200020002343502F
:108CD40082B043580193019B02B070471FB5012332
:108CE4008DF80030054B8DF8080001916846D3E9F2
:108CF4000012904705B05DF804FB00BF0C21002072
:108D04007FB5374AD2F82461002E47D010464FF47D
:108D14009271FFF7DBFF02238DF80030D2F8803424
:108D2400C2F880340393D2F83C358DF808302D4BCB
:108D3400DA6801920022C3E906226846D3E90012E8
:108D440090472748D0F844316BB14FF4A271FFF734
:108D5400BDFF244B9A6932B100229A61D0F83C05D8
:108D6400D968FFF7BBFF1E48D0F82031A3B14FF4F8
:108D74009071FFF7ABFF1B4B5A696AB1D0F84C15E1
:108D84008DF80810002299688DF8002001915A612D
:108D94006846D3E90012904704B070BDD2F8103190
:108DA400002BCED04FF488711046FFF78FFF0D4B88
:108DB400D2F83C0599698842C3D1DC69D96864B1A9
:108DC400D2F8005225F02005C2F800521A699C61BD
:108DD400DA60DE61FFF782FFB3E79C61FAE700BF68
:108DE400002000400C2100202DE9F8435E4B067959
:108DF4009146242202FB0632044692F820200D46B6
:108E04009846002A40F0AC8058490068FFF7EEFC11
:108E14000746002840F0A68029682368481C0BD028
:108E24004FF0A04001228A40C0F8082501F5E07205
:108E34004FF0030C40F822C06868421C1FBF00F5C5
:108E4400E0724FF0A04C4FF0000E4CF822E0AA69FB
:108E5400C3F8242595F814C06A7DBCF1010F4CEACF
:108E64000202C3F86C25C3F80C15C3F814051DD110
:108E7400A9684A1C1FBF01F5E0724FF0A0404FF0F3
:108E8400000C40F822C0EA68501C0BD04FF0A04CF4
:108E940001209040CCF8080502F5E0704FF0030E75
:108EA4004CF820E0C3F80825C3F8101524237343B5
:108EB40008EB0302C2F804902A6948F80320B9F1C8
:108EC400000F3CD020682A7F4FF48871FFF7FEFE24
:108ED40020684FF49071FFF7F9FE20684FF4927107
:108EE400FFF7F4FE20684FF4A271FFF7EFFE23684A
:108EF4001F49C3F80413190B43F30733002BA8BF0E
:108F040003F160404FEA5313BCBF01F00F05194849
:108F14004FEA4212A8BF00F561404FEA8303D2B280
:108F240003F16043B4BF425580F8002303F5614365
:108F340001F01F0101228A40C3F880211A602368CE
:108F44000822C3F80025242303FB06830022C3E977
:108F540006225A61012283F820203846BDE8F883AE
:108F64000827FAE71127F8E70C210020058D0200F5
:108F74001003020014ED00E0F8B5047900682C4DEC
:108F84000023C0F80035242303FB04535B686BB152
:108F9400284BC0F8083340F30733C0F304315B09AE
:108FA40001228A402033244941F82320D0F80C655B
:108FB400D0F81415D0F80835D0F810254FF0FF3745
:108FC400BE42C0F80C7518BF06F5E076C0F81475FB
:108FD400C0F80875C0F810751EBF4FF0A0474FF0D9
:108FE400020C47F826C04E1C1FBF4FF0A04601F5E7
:108FF400E071022746F82170511C1FBF4FF0A041B9
:1090040002F5E072022641F822605A1C1FBF03F5E4
:10901400E0734FF0A042022142F82310FFF708FC4E
:10902400242303FB0454002384F820306360F8BD38
:109034000C2100201003020000E100E001F0604375
:10904400B3F1005F2DE9F041064632D11B4B07799D
:10905400242505FB073598466C6964BB6A61006882
:10906400A9604FF49071FFF731FE4FF4AC71306892
:10907400FFF72CFE33686A69A968C3F84415C3F87E
:10908400482501229A606A6862B9D3F82021D3F88E
:10909400584152B9002CF8D00F24242303FB07872E
:1090A40000237B612046BDE8F081002C18BF0F240B
:1090B400F3E71024F6E71124F4E700BF0C210020A5
:1090C4000220FEF7F9BF00002DE9F04780460D4667
:1090D400FFF704F80328044610D8012D10D0022D00
:1090E40030D05DB91A48FEF753FA1A4B04EB440228
:1090F40013449E78184B1B5DB34219D0BDE8F0872A
:10910400144D00EB4002A918AE5C4A78470052B1F6
:10911400DFF84C900E484A464FF40041FEF7F0F950
:1091240008B989F800803B192B449A780A4B1A55E0
:10913400002EE3D0094B1B68002BDFD03046BDE87E
:10914400F047184700EB4004024804446678EFE710
:109154005421002094210020AD210020A8210020CA
:109164003021002000780221FFF7AEBF08B5094B7B
:109174001B7853B10020FEF775FF0120FEF772FF44
:10918400BDE808400320FEF76DBFBDE80840FEF7C8
:1091940075BF00BF31210020F8B57B4C237805460C
:1091A4001BB100232370FFF7E1FF172D00F2888025
:1091B400DFE805F00C17174354657680888D888D99
:1091C400959A9A9A9A9AC4C9D1D9E4E4FFF7CEFF42
:1091D4006E48FEF7DDF96E4B002204461A702046F5
:1091E400F8BD0020FEF724FFF8B10020FEF73AFF97
:1091F400022D0CBF4FF4E1614FF47A61644B1D7092
:109204004FF400404FF4FA740025E0FB01454FF49D
:109214007A7200232046294600F04CFE00220146C3
:10922400BDE8F8405948FEF76BB9FEF70FFF022D71
:109234000CBFC8214FF4C871E0E70020FEF7F8FE28
:1092440040B10020FEF70EFF4FF44871504B03224B
:109254001A70D5E7FEF7FAFEC821F7E70020FEF7FB
:10926400E7FE38B10020FEF7FDFE4FF47A61484B6B
:109274000422EDE7FEF7EAFE4FF4C871F7E7002099
:10928400FEF7D6FE48B10020FEF7ECFE404B052267
:109294001A7041F69A110022C2E7FEF7D7FEF5E7ED
:1092A4000020FEF709FF3A4B06221A70002240F60E
:1092B400CD41B5E70020FEF7C9FE354B07221A70F1
:1092C40000248CE701202070FEF7F6FEEEE7012073
:1092D4002070FEF7F1FE00224FF48041A0E7FEF774
:1092E400DCFE2B4B0C22EAE72A482B4EFEF750F902
:1092F400D5F1110504461CD0D8B9012D13D0C823CB
:109304005D434FF400474FF4FA7000214FF47A7232
:109314000023C7FB050100F0CDFD224601461D4890
:10932400FEF7EEF804460220FEF790FE01233370A8
:1093340055E70220FEF796FE0023F8E7FFF716FF35
:10934400134B1222BBE7FFF711FF0020FEF77EFE4E
:109354000F4B1322B3E7FFF709FF0120FEF776FE58
:109364000B4B1422ABE7FFF701FF0020FEF76EFE64
:109374000120FEF76BFE064B1522A0E7FEF78DFEDB
:10938400034B1D709CE700BFA42100207421002022
:10939400AC2100203421002031210020044B1B6823
:1093A400DB0703D5034B1878FFF7F6BE704700BF01
:1093B400A0210020AC210020044B1B6813F0010302
:1093C40001D0FFF7E9BE1846704700BFA021002076
:1093D40038B51C4B18601C4B10F00204054619608C
:1093E4001AD01A4B1A480E221A700F22DA70102261
:1093F4009A7111225A72042140F26662FDF77AFDD5
:10940400044648B9FDF7CAFD044628B90146114A85
:109414001148FEF763F80446EB0711D50120FEF767
:109424006FFE6CB921460D4A0D48FEF757F8044605
:1094340030B9BDE838400B4A0B480121FEF74EB85D
:10944400204638BDA0210020A8210020942100201E
:109454008CA8020069910200B0A80200A193020046
:10946400B4A80200C5900200ACA8020072DF7047E5
:1094740073DF704718B9024A1368013313607047E9
:10948400B421002000B54FF4004193B00020FDF753
:109494004DF908B1FDF798FDFDF77EF8FDF7EEFFF5
:1094A40008B1FDF791FD00210120FFF791FF08B1FC
:1094B400FDF78AFDFEF7D0FB08B1FDF785FD00F04E
:1094C40055FB08B1FDF780FD002303A90120039398
:1094D40000F0D4FB08B1FDF777FD03A800F07EFC93
:1094E40008B1FDF771FD5923ADF800302F4B304C16
:1094F4001A68304B0293110C100ED974C2F3072171
:109504000025987419755A75002117233C2203A865
:10951400ADF8043000F0BCFD04231822294620468F
:109524008DF80F308DF80C50CDF830D000F0B0FD30
:10953400214A65600523237052F8041B25754FF4F6
:10954400487303A8A360A58100F0BCF808B1FDF737
:109554003BFD174A18491948FFF788FF08B1FDF782
:1095640033FD174A0121032000F086FA154B1648F3
:109574001649C01AC008000440F00300FDF78CFA35
:109584000E4B01211878FFF773FF08B1FDF71CFD9E
:109594000220FFF711FF08B1FDF716FDFDF720F9D2
:1095A4000028FBD1FEF76EFBF8E700BF8010001027
:1095B400B8210020D9180020C8180020D81800208D
:1095C4007994020090A10200B8A10200B8A8020098
:1095D4006DDF704779DF70477DDF704764DF704768
:1095E4002DE9F04F85B000250E9CBDF83CB0B4F8D1
:1095F40000A00191074690461E46A9463A884A456E
:109604000DDC45B12388013BA3EB0A039BB2FF2B7E
:109614003AD806F80A30002005B0BDE8F08F7A6821
:1096240052F82900039000220DF10B0103A8FFF763
:10963400D5FF0028F0D19DF80B20424521D1228886
:10964400002D14BF0020022002EB080101445945FB
:109654001ADC3DB9013292B2019B2280B3542288B4
:109664000132228022880DF10B01324403A8FFF756
:10967400B5FF0028D0D121889DF80B200A44228010
:10968400012509F10109B9E70C20C5E72DE9F341EA
:10969400089FBDF824801546CDE9007802220446CF
:1096A4001E46FFF79DFF50B9334610222946204637
:1096B400CDE9087802B0BDE8F041FFF791BF02B0F0
:1096C400BDE8F0812DE9F04F00231788138090F84E
:1096D4002D3085B006460D46144653B3082F01D8E5
:1096E4000C2027E102A8FFF773FF002840F0228135
:1096F40023880822EA54238801339BB21B22238047
:10970400EA542088013080B2208006220DF109013C
:10971400284400F094FC23889DF8082006339BB26B
:1097240012F0FE0218BF01222380EA542388013379
:109734002380B378FBB123880433BB42D0D802A87A
:10974400FFF748FF002840F0F58023880322EA54FD
:10975400238801339BB219222380EA542388BDF85D
:10976400082001339BB2E9182380EA54120A4A7094
:10977400238802332380F2789AB12388D91CB94212
:10978400AED80221E954238801339BB201212380FE
:10979400E95423880B449BB22380EA5423880B4466
:1097A40023807268AAB12388D91CB94298D80221AF
:1097B40092F90020E954238801339BB20A212380C3
:1097C400E954238801339BB22380EA54238801336C
:1097D40023803389002B40F0A180338A5BB1CDE92B
:1097E40000472B460722032106F11000FFF74EFF26
:1097F400002840F09F80338B5BB1CDE900472B46B6
:109804001522142106F11800FFF740FF002840F04C
:109814009180326A002A40F09080D6F82480B8F112
:10982400000F30D0B8F804302188981C8A1C0244F8
:10983400BA423FF655AFFE283FF652AF03336B549E
:10984400238801339BB2FF222380EA542388013307
:109854009BB22380B8F80020EA54E918120A4A702F
:109864002088023080B22080B8F804205AB1D8F899
:10987400081000296BD0284400F0E1FB2388B8F8D5
:1098840004201344238096F82C30002B40F09A8057
:10989400307800284ED03388012B58D0228802F12A
:1098A400020CBC453FF61CAF012805D17378023386
:1098B40013449F42FFF414AF023FBF1ABFB202A980
:1098C40005EB0C00ADF80870FFF786FE90BB31780D
:1098D400BDF80830022900F0BA8072789A4202D3A7
:1098E400BB4240F2B280012940F0B380974293B268
:1098F400C0F0AF80ADF808300821BDF80830FE2B69
:109904003FF6EEAE22880133AB542288013292B284
:109914002280A9542288134423800BE0CDE9004718
:109924002B460622022106F10800FFF7AFFE0028AD
:109934003FF453AF05B0BDE8F08FB4F800C00CF1AC
:109944000603BB423FF6CCAE1188052901D8072097
:10995400F0E76FF4486E01EB0E039BB24FF27D3ECD
:109964007345F4D95388052BF1D96FF4486018185E
:1099740080B27045EBD94FF6FF70814203D0834229
:1099840001D09942E3D8052305F80C30238801332C
:109994009BB212212380E954238801339BB2238094
:1099A4001188E954E818090A4170238802339BB2EC
:1099B40023805288EA54E918120A4A702388023331
:1099C40023802AE7B36A002BC1D04FF000094FF07F
:1099D4000C0A4FF0160B96F82C305FFA89F293427A
:1099E4007FF656AFB16A0AFB02F201EB0208B8F83F
:1099F4000430981CFE283FF673AE208803332B54A2
:109A0400238801339BB2238005F803B023880133F4
:109A14009BB223808A5AEA54E918120A4A702088B1
:109A2400023080B22080B8F804205AB1D8F8081067
:109A340000298CD0284400F002FB2388B8F80420C5
:109A44001344238009F10109C5E7092155E7BB4205
:109A5400FBD9ADF808704FE745DF7047044B187821
:109A640080F001001870034B1B6803B1184770475E
:109A7400F4210020F0210020144B30B41A60144B60
:109A84004FF400140728C3F880411AD8EC2242FA94
:109A940000F5ED0715D54001C0B283F8150393F81E
:109AA400150340090241D2070BD50A4A906830B128
:109AB40013682343136030BC0320FFF7CDBF1C6041
:109AC400F9E742F2020030BC704700BFF0210020E9
:109AD40000E100E03820002010DF704713B5044691
:109AE40009496846FEF7FDF8019808B902B010BDAF
:109AF400D0E900212046904718B16846FEF7FBF8EC
:109B0400F2E71120F2E700BFDCA8020013B5044617
:109B140007496846FEF7E5F8019B0BB902B010BD92
:109B24002046D3E9002190476846FEF7E4F8F3E7BE
:109B3400F4A802000B4991F816335A09EC23134197
:109B4400DB0706D5084B9A683AB94FF480030B60DB
:109B5400704742F20200FDF737BA1A6842F48002F5
:109B64001A60704700E100E038200020F7B5194F73
:109B74003C7864BB184E012520463570FFF7AEFFD4
:109B8400112821D02046FFF7C1FF144B8DF8034064
:109B9400186801900DF10300FDF70AFD104901A8B2
:109BA400FFF79AFF0446B0FA80F0400938709DF838
:109BB4000300FDF721FD3CB90A4B34701C70FFF71C
:109BC400B9FF2846FFF7A2FF204603B0F0BD0824E2
:109BD400FAE700BFF6210020F5210020D8A80200F2
:109BE400E96F0200F7210020014B1878704700BF8D
:109BF400F621002007B508496846FEF772F8019B74
:109C040013B903B05DF804FBD3E90020904768461C
:109C1400FEF771F8F3E700BFE8A80200FFF7EABF18
:109C240060DF704769DF704761DF704730B5114B03
:109C34001B7891B0E3B1104D34240DF1020103A857
:109C4400ADF80240FFF7F0FF70B9294601A8FEF70E
:109C540048F8029B002BF0D003A8D3E900219047D9
:109C640001A8FEF748F8F4E7052801D0FDF7ACF9A0
:109C740011B030BDF821002038AB020030B50546E4
:109C840085B00C46002900F097804C4B0B600C22E9
:109C9400002101A800F0FCF901238DF806302268A8
:109CA4008DF80450062301A92020ADF80830FFF7F1
:109CB400B9FF60B1FEF74AF8414B424902464248B7
:109CC4001B1ADB081B0443F00100FCF7E9FE0C221D
:109CD400002101A800F0DCF9002322688DF805308A
:109CE40001A94020ADF80630FFF79CFF60B1FEF7F4
:109CF4002DF8334B3549024633481B1ADB081B0445
:109D040043F00100FCF7CCFE0C22002101A800F076
:109D1400BFF9002322688DF8043001A90120FFF760
:109D240081FF60B1FEF712F8254B29490246264807
:109D34001B1ADB081B0443F00100FCF7B1FE0C22E4
:109D4400002101A800F0A4F9F8232268019301A9D5
:109D5400A120FFF767FF60B1FDF7F8FF184B1D491D
:109D6400024619481B1ADB081B0443F00100FCF7E8
:109D740097FE0C22002101A800F08AF99DF8043016
:109D840022686FF3000301A9A0208DF80430FFF7C7
:109D940049FF034668B1FDF7D9FF094B0E49024656
:109DA40009481B1ADB081B0443F00100FCF778FE8A
:109DB4000023184605B030BD0E23FAE7A81800208A
:109DC400D0A1020000A9020090A1020046A902004D
:109DD40092A90200DEA902002FAA020073B505466B
:109DE4000668FFF71DFF2B68B34204461DD91A48C5
:109DF4001A4B1B491B1ADB081B0443F00200019099
:109E0400FCF74AFE2B68174901983246FCF751FECD
:109E14004FF080532A68D3F80C31134901989B0200
:109E240003F100539A1AFCF73BFE2CB90F4B0122A5
:109E34001A70204602B070BD2046FDF787FF074B1D
:109E44000B49024604481B1ADB081B0443F00100BB
:109E5400FCF726FEEDE700BF90A10200D0A10200AE
:109E640082AA0200B1AA0200E2AA0200F82100209C
:109E74000CAB02004BDF70471FB50D4C01A8FFF778
:109E8400F9FF70B9214602A8FDF72BFF039B002BB5
:109E9400F4D00198D3E90021904702A8FDF72BFFE5
:109EA400F4E7052801D0FDF78FF804B010BD00BF1A
:109EB40050AB020053EA020C61D02DE9F04BB3FA27
:109EC40083F51E0007BFB2FA82F502FA05F403FA1D
:109ED40005F41646C5F120051EBF22FA05F73C43DA
:109EE400203556EA044C4FEA144418BF0134A34603
:109EF4004FF00009C846904271EB030C39D3094274
:109F040007BFB0FA80F700FA07F6B1FA81F701FA51
:109F140007F6C7F120071EBF20FA07FC46EA0C0625
:109F24002037B6FBFBFC7F1B103F07F01F04C4F176
:109F340020060CFA04F42CFA06F644BF3446002634
:109F4400202FA4BF2646002454EA060C08BF01248F
:109F540018EB040849EB0609A4FB027CC01B06FBB2
:109F640002CC04FB03CC71EB0C01904271EB030CAB
:109F7400C5D20B46024649464046BDE8F08BB2FBCB
:109F8400F3F200007F2805D8034B185C034B5B5C9D
:109F9400184070470020704768AB0200E8AB02002D
:109FA400A0F16103192B98BF20387047A0F1410339
:109FB400192B98BF203070477F2805D8034B185CB5
:109FC400034B5B5C184070470020704768AB02008D
:109FD400E8AB0200A0F16103192B98BF2038704749
:109FE400A0F14103192B98BF203070477F299ABFF5
:109FF400017001206FF02E0070475AB10A787F2A51
:10A004000AD800B10260002119605960501A18BFC3
:10A0140001207047002070476FF02E007047000049
:10A0240008B5034B5B689B681B68984708BD00BF75
:10A03400F018002008B50921FFF7F2FF08BD844697
:10A0440040EA010313F0030F18D18446202A0BD3EE
:10A054002DE9F007B1E8F807A0E8F807A2F120021B
:10A06400202AF7D2BDE8F007042A07D351F8043BAD
:10A0740040F8043BA2F10402042AF7D2002A05D0D6
:10A0840011F8013B00F8013B013AF9D160467047F1
:10A094008446002A2DD010F0030F04D000F8011BD1
:10A0A400013A26D0F7E7C9B241EA012141EA014168
:10A0B400202A12D3A2F120022DE9F0030B460C460C
:10A0C4000D460E460F4688468946A0E8FA03203A14
:10A0D400FBD2BDE8F00320320BD0042A05D340F8AC
:10A0E400041B043A05D0042AF9D200F8011B013AF2
:10A0F400FBD16046704700F1010110F0030F11D04D
:10A1040010F8012B002A23D010F0030F0AD010F806
:10A11400012B002A1CD010F0030F03D010F8012BE0
:10A12400002A15D02DE970004FF001324FF0803332
:10A1340050F8044BA4EB020525EA04051D4000D1A8
:10A14400F6E7A0F1040070BC10F8012B002AFBD143
:06A15400A0EB01007047C2
:08A15C008581020000000000F3
:10A16400319C0200000000007D9E020000000000FF
:08A1740005820200000000005A
:10A17C0048190020101A0020181A0020501900202D
:04A18C0018000000B7
:10A190006EA802000000000074A802000000000089
:10A1A0007BA80200000000007FA802000000000061
:10A1B00084A802000000000046A202000000030381
:10A1C00068A8020000000000D0A8020000000303FD
:10A1D00029AB02000000030344AB020000000303AC
:08A1E00056A30200000000007C
:10A1E80018A202000000000024A20200BC180020EF
:10A1F800FFFFFFFFFFFFFFFFFFFFFFFFFFFFFFFF67
:10A2080000000000000000000000D6010601000068
:10A218000565020069650200A56402007561727433
:10A228005F6C6F675F6261636B656E640042616358
:10A238006B656E647320666C757368656400617025
:10A24800700000003C1E00207F000000BC1E0020A3
:10A258001B5B306D002573001B5B313B33316D0098
:10A2680025734C6F67732064726F70706564202863
:10A2780025642925730D0A003C25733E2025733A71
:10A288002000202530327800202020007C00256323
:10A29800001B5B313B33306D001B5B313B33326D50
:10A2A800001B5B313B33336D001B5B313B33346D3B
:10A2B800001B5B313B33356D001B5B313B33366D27
:10A2C800001B5B313B33376D007761726E696E67D7
:10A2D80000696E666F0064656275670058A20200C7
:10A2E80099A2020060A20200A1A20200A9A2020093
:10A2F800B1A20200B9A20200C1A20200C9A20200D2
:10A308000000000026A30200D1A20200D9A2020088
:10A31800DEA20200DC1E0020466174616C206572BA
:10A32800726F720053797374656D2072657365740A
:10A3380000000000000000000338FDD870473031ED
:10A3480032333435363738394142434445467077DD
:10A35800725F6D676D74000064A1020064A1020061
:10A36800040000004E52465F535543434553530083
:10A378004E52465F4552524F525F5356435F4841D3
:10A388004E444C45525F4D495353494E47004E5237
:10A39800465F4552524F525F534F465444455649C3
:10A3A80043455F4E4F545F454E41424C4544004E35
:10A3B80052465F4552524F525F494E5445524E41A4
:10A3C8004C004E52465F4552524F525F4E4F5F4DC2
:10A3D800454D004E52465F4552524F525F4E4F54C4
:10A3E8005F464F554E44004E52465F4552524F52BB
:10A3F8005F4E4F545F535550504F52544544004E92
:10A4080052465F4552524F525F494E56414C49445D
:10A418005F504152414D004E52465F4552524F5295
:10A428005F494E56414C49445F5354415445004E90
:10A4380052465F4552524F525F494E56414C49442D
:10A448005F4C454E475448004E52465F4552524F66
:10A45800525F494E56414C49445F464C4147530070
:10A468004E52465F4552524F525F494E56414C49F3
:10A47800445F44415441004E52465F4552524F5248
:10A488005F444154415F53495A45004E52465F4527
:10A4980052524F525F54494D454F5554004E524603
:10A4A8005F4552524F525F4E554C4C004E52465FDC
:10A4B8004552524F525F464F5242494444454E001E
:10A4C8004E52465F4552524F525F494E56414C4993
:10A4D800445F41444452004E52465F4552524F52E7
:10A4E8005F42555359004E52465F4552524F525F94
:10A4F800434F4E4E5F434F554E54004E52465F45B4
:10A5080052524F525F5245534F5552434553004E96
:10A5180052465F4552524F525F4D4F44554C455F2E
:10A528004E4F545F494E495449414C495A4544009D
:10A538004E52465F4552524F525F4D555445585FF3
:10A54800494E49545F4641494C4544004E52465F86
:10A558004552524F525F4D555445585F4C4F434BEF
:10A568005F4641494C4544004E52465F4552524F62
:10A57800525F4D555445585F554E4C4F434B5F46BF
:10A5880041494C4544004E52465F4552524F525F36
:10A598004D555445585F434F4E445F494E49545FAB
:10A5A8004641494C4544004E52465F4552524F522F
:10A5B8005F4D4F44554C455F414C52454144595FAE
:10A5C800494E495449414C495A4544004E52465F08
:10A5D8004552524F525F53544F524147455F46557B
:10A5E8004C4C004E52465F4552524F525F415049C3
:10A5F8005F4E4F545F494D504C454D454E54454470
:10A60800004E52465F4552524F525F46454154559F
:10A6180052455F4E4F545F454E41424C4544004EB3
:10A6280052465F4552524F525F494F5F50454E4424
:10A63800494E47004E52465F4552524F525F445270
:10A64800565F5457495F4552525F4F5645525255CF
:10A658004E004E52465F4552524F525F4452565F2B
:10A668005457495F4552525F414E41434B004E5249
:10A67800465F4552524F525F4452565F5457495FA6
:10A688004552525F444E41434B004E52465F45523D
:10A69800524F525F424C455F495053505F52585F8A
:10A6A800504B545F5452554E4341544544004E520A
:10A6B800465F4552524F525F424C455F4950535096
:10A6C8005F4348414E4E454C5F414C5245414459C9
:10A6D8005F455849535453004E52465F4552524FB6
:10A6E800525F424C455F495053505F4C494E4B5F57
:10A6F800444953434F4E4E4543544544004E5246F9
:10A708005F4552524F525F424C455F495053505F2C
:10A71800504545525F52454A454354454400556E9D
:10A728006B6E6F776E206572726F7220636F6465EF
:10A7380000000000000000006CA3020001000000FF
:10A7480078A302000200000096A3020003000000A4
:10A75800B7A3020004000000CAA30200050000001D
:10A76800DBA3020006000000EFA3020007000000C0
:10A7780007A40200080000001FA40200090000004E
:10A7880037A402000A00000050A402000B000000D9
:10A7980068A402000C0000007FA402000D00000065
:10A7A80093A402000E000000A5A402000F00000000
:10A7B800B4A4020010000000C8A4020011000000A8
:10A7C800DFA4020012000000EEA402001300000043
:10A7D80003A502008000000017A502008100000008
:10A7E80038A502008200000054A502008300000082
:10A7F80070A50200840000008EA5020085000000FC
:10A80800AFA5020086000000D4A502009000000059
:10A81800EBA502009100000009A6020092000000CA
:10A8280027A60200008200003CA602000182000068
:10A838005AA602000282000076A6020000840000E8
:10A8480092A6020001840000B6A60200028400005D
:10A85800E0A602000384000005A7020011121314E9
:10A86800636C6F636B00434C4F434B004750494F39
:10A8780054450050525300554152540055415254CA
:10A88800450000000D000300CD9002000E000300FB
:10A89800CD9002000F000300CD90020010000300CD
:10A8A800CD90020034210020542100207421002082
:10A8B800426561636F6E206578616D706C652073A9
:10A8C8007461727465642E006E72665F73646800EA
:10A8D8000100000774A1020074A102000800000032
:10A8E80064A1020074A102000800000074A1020023
:10A8F8007CA102000800000073645F626C655F63FE
:10A9080066675F73657428292072657475726E6551
:10A9180064202573207768656E20617474656D7096
:10A9280074696E6720746F2073657420424C455FAC
:10A93800434F4E4E5F4346475F4741502E00736476
:10A948005F626C655F6366675F7365742829207250
:10A95800657475726E6564202573207768656E204E
:10A96800617474656D7074696E6720746F207365A7
:10A978007420424C455F4741505F4346475F524F02
:10A988004C455F434F554E542E0073645F626C65AF
:10A998005F6366675F7365742829207265747572D2
:10A9A8006E6564202573207768656E206174746510
:10A9B8006D7074696E6720746F2073657420424CE3
:10A9C800455F434F4D4D4F4E5F4346475F56535F7C
:10A9D800555549442E0073645F626C655F63666712
:10A9E8005F73657428292072657475726E656420BA
:10A9F8002573207768656E20617474656D7074695D
:10AA08006E6720746F2073657420424C455F474120
:10AA18005454535F4346475F415454525F54414234
:10AA28005F53495A452E0073645F626C655F6366C5
:10AA3800675F73657428292072657475726E656422
:10AA4800202573207768656E20617474656D707455
:10AA5800696E6720746F2073657420424C455F47A8
:10AA6800415454535F4346475F5345525649434503
:10AA78005F4348414E4745442E00496E73756666EC
:10AA8800696369656E742052414D20616C6C6F6317
:10AA98006174656420666F722074686520536F6600
:10AAA800744465766963652E004368616E67652046
:10AAB8007468652052414D207374617274206C6F04
:10AAC800636174696F6E2066726F6D2030782578C7
:10AAD80020746F20307825782E004D6178696D7567
:10AAE8006D2052414D2073697A6520666F7220612E
:10AAF80070706C69636174696F6E20697320307857
:10AB080025782E0073645F626C655F656E61626CA8
:10AB18006528292072657475726E65642025732E08
:10AB2800006E72665F7364685F626C6500000000A7
:10AB380064A1020064A10200080000006E72665F52
:10AB48007364685F736F63005CA1020064A1020014
:10AB58000800000043000000504F5349580000000F
:10AB68002020202020202020206828282828202075
:10AB780020202020202020202020202020202020CD
:10AB88004810101010101010101010101010101085
:10AB98008484848484848484848410101010101025
:10ABA800108181818181810101010101010101017E
:10ABB8000101010101010101010101101010101032
:10ABC800108282828282820202020202020202024F
:10ABD80002020202020202020202021010101020F7
:10ABE80000070320041702010857104080000000E6
:10ABF8005CAB020060AC020074AD020053756E00DD
:10AC08004D6F6E0054756500576564005468750093
:10AC18004672690053617400000000004A616E00CA
:10AC2800466562004D617200417072004D617900A5
:10AC38004A756E004A756C0041756700536570006F
:10AC48004F6374004E6F7600446563000000000097
:10AC5800414D00504D00000098AD020094AD020037
:10AC680094AD020094AD020094AD020094AD0200D0
:10AC780094AD020094AD020094AD020094AD0200C0
:10AC8800FFFFFFFFFFFFFFFFFFFFFFFFFFFF0000CA
:10AC9800D4AC020004AC020010AD020024AC0200E7
:10ACA80058AC0200B8AC020068AD0200C4AC0200A7
:10ACB800256D2F25642F25790000000025612025AA
:10ACC80062202565202554202559000053756E649F
:10ACD8006179004D6F6E64617900547565736461C4
:10ACE80079005765646E657364617900546875729C
:10ACF800736461790046726964617900536174759F
:10AD080072646179000000004A616E7561727900B1
:10AD18004665627275617279004D617263680041BF
:10AD28007072696C004D6179004A756E65004A75EC
:10AD38006C79004175677573740053657074656D3F
:10AD4800626572004F63746F626572004E6F76655C
:10AD58006D62657200446563656D6265720000002E
:10AD680025483A254D3A255300000000899F0200E6
:10AD7800A59F0200B19F0200BD9F0200D99F02005B
:10AD8800E59F0200F19F0200FF9F02000000000003
:02AD98002E008B
:10AD9C0000000000002000400000000000200040E7
:10ADAC000000000000000000FF0000000090D00335
:10ADBC00D02100201F000000B4210020040000005E
:10ADCC00FF02150112233445566778899AABBCCD26
:10ADDC00DEEFF001020304C3F8AB0200F8AB020093
:0CADEC00F8AB0200F8AB0200F8AB02006C
:040000032000637501
:00000001FF
