:020000022000DC
:1060000000000120756302005D6302005F6302000F
:106010006163020063630200656302000000000028
:1060200000000000000000000000000067630200A4
:1060300069630200000000006B6302006D630200F0
:1060400041A902006F630200A1B602006F63020063
:106050006F6302006F630200C1B302006F6302004E
:106060006F6302006F6302006F6302006F630200E0
:106070006F6302006F6302006F6302006F630200D0
:106080006F630200A58502006F6302006F63020068
:10609000E585020051D3020091D702006F63020030
:1060A0006F6302006F6302006F6302006F630200A0
:1060B0006F6302006F630200000000000000000038
:1060C0006F6302006F6302006F6302006F63020080
:1060D0006F6302006F6302006F6302000000000044
:1060E00000000000000000000000000000000000B0
:1060F00000000000000000000000000000000000A0
:10610000000000000000000000000000000000008F
:10611000000000000000000000000000000000007F
:10612000000000000000000000000000000000006F
:10613000000000000000000000000000000000005F
:10614000000000000000000000000000000000004F
:10615000000000000000000000000000000000003F
:10616000000000000000000000000000000000002F
:10617000000000000000000000000000000000001F
:10618000000000000000000000000000000000000F
:1061900000000000000000000000000000000000FF
:1061A00000000000000000000000000000000000EF
:1061B00000000000000000000000000000000000DF
:1061C00000000000000000000000000000000000CF
:1061D00000000000000000000000000000000000BF
:1061E00000000000000000000000000000000000AF
:1061F000000000000000000000000000000000009F
:10620000354936480A1A02D0072291438D4634494F
:1062100034480A1A06D00722914381F309880222E2
:1062200082F3148830483149314A00F044F831484B
:106230003149324A00F03FF831483249324A00F0E1
:106240003AF832483249334A00F035F83248334997
:10625000334A00F030F833483349344A00F02BF821
:1062600033483449344A00F026F83448344900228F
:1062700000F02CF833483449002200F027F8334866
:106280003349091A082902DB002202604160314AC1
:1062900090471F481F49884205D00268043003B464
:1062A000904703BCF7E700208646EC46002000211B
:1062B000294A9047FEE7884207D0521A05D0037852
:1062C00001300B700131013AF9D17047884202D098
:1062D00002700130FAE770470000012000E0002062
:1062E000000001200000012028F50200A81800206D
:1062F0002C190020D4630200D4630200CEDE020019
:1063000028F50200A8180020A81800206CDF020061
:106310006CDF02006CDF02006CDF02006CDF020049
:106320006CDF02006CDF02006CDF020026F5020069
:10633000ACF502002C1900202C1900202C1900208B
:10634000882400208824002088240020882400201D
:10635000884400209D630200D1C20200FEE7FEE7F0
:10636000FEE7FEE7FEE7FEE7FEE7FEE7FEE7FEE705
:10637000704700BF1048804710484FF0070188431E
:1063800085460F4880470F48016841F4700101605D
:10639000BFF34F8FBFF36F8FFFF732BF0A480B4930
:1063A0000B4A884207D0521A05D0037801300B708F
:1063B0000131013AF9D170477163020000000120F8
:1063C000D599020088ED00E06CDF0200A8180020DB
:0463D000A8180020E9
:1063D40000B585B00190019B002B0AD0074B43F018
:1063E40001030393019B9B010293039B029898472B
:1063F40000E000BF05B05DF804FB00BF80DF0200D1
:1064040000B583B00190019B002B0AD04FF47A7041
:10641400FFF7DEFF019B013B0193019B002BF5D1AC
:1064240000E000BF03B05DF804FB08B506F0CCF84B
:1064340000BF08BD00B589B0039002910192019B91
:10644400002B33D00023079303230693029A079B60
:106454001344019A1946002006F066F80590079A3D
:10646400059B13440793019A059BD31A0193059B3B
:10647400002B13D10F4B1B7883F00103DBB2002BED
:1064840013D10120FFF7BCFF069B013B0693069B3B
:10649400002B03D1074B00221A7007E0054B0122A1
:1064A4001A70019B002BD1D100E000BF00BF09B0DE
:1064B4005DF804FB2C19002000B585B0039002910F
:1064C400054B00934023054A0299039800F012F803
:1064D40000BF05B05DF804FB3964020030190020E8
:1064E40082B0019000BF02B0704782B0019000BF3B
:1064F40002B0704700B5A1B00590049103920293D5
:10650400049802F0EBFF039B1593029B1693002360
:10651400179300238DF8603000231993229B1A935C
:1065240000231F930FA91F9B0822049803F0B0F8BF
:1065340008231F93119B1293BDF84030ADF84C30E3
:10654400BDF84230ADF84E3000238DF851309DF83F
:106554003C3003F00303DBB2012B26D10F9BC3F3C2
:1065640095231C939DF83C30C3F3C203DBB28DF832
:106574005030BDF83C30C3F38313DBB21B931B9B39
:106584009A0009A91F9B049803F082F81B9B9B00A7
:106594001F9A13441F9312AA09A915AB009313461B
:1065A4001B9A1C9800F0D6FE2FE09DF83C3003F0B7
:1065B4000303DBB2022B28D1BDF83E30C3F38913A9
:1065C4009BB21E939DF83C30C3F3C203DBB28DF83B
:1065D40050301E9B082B28BF08231D9307A91F9B1F
:1065E4001D9A049803F054F81F9A1D9B13441F939B
:1065F4001E9A1D9BD31A1E9315AB12AA07A81D99A8
:1066040000F04AFF1E9B002BE3D1049802F075FFB3
:1066140000BF21B05DF804FB82B00190019BDB68F0
:1066240001225A7100BF02B07047000000B583B068
:106634004FF0FF330193FFF7F8FE0421084800F000
:10664400A3FD0190019B002B03DA0649412005F0CC
:106654004FFC0348FFF7E0FF00BF03B05DF804FB05
:106664005CDF020098DF020000B583B00190009166
:10667400019B1B681B6800990198984700BF03B0F1
:106684005DF804FB00B583B00190019B1B685B6857
:106694000198984700BF03B05DF804FB00B583B0D0
:1066A4000190019B1B689B680198984700BF03B049
:1066B4005DF804FB82B001900B468DF80330019B1A
:1066C400DB689DF803201A7100BF02B0704782B0E6
:1066D4000190019BDB681B79184602B0704782B0B9
:1066E4000190019BDB6801225A7100BF02B0704720
:1066F40082B00190019BDB685B79184602B0704759
:1067040000B585B001900091154BFF229A60144B9F
:1067140000221A60124B00225A60114B0022C3F867
:1067240018240F4B0022C3F814240D4B002283F8C5
:1067340020240C4802F036FE0390039B002B01D06A
:10674400039B08E0084803F061F8084A084BD31A91
:10675400DB0802930023184605B05DF804FB00BF74
:10676400D81A0020F0DE0200F0DF02005CDF020035
:1067740004DF0200024A034BD31ADB0818467047B1
:106784005CDF020004DF020000B587B001900B4615
:106794008DF803309DF80330002B1FD0FFF7EAFF7C
:1067A40004900023059313E0059B9B000E4A1344B9
:1067B4000393039B1B881A46019B1B689A4204D1CE
:1067C400019B059A1A60002309E0059B0133059398
:1067D400059A049B9A42E7D3052300E00023184658
:1067E40007B05DF804FB00BFA818002000B585B011
:1067F40001900B468DF803309DF8032001AB114640
:106804001846FFF7C1FF0346002B07D1019BDB00AD
:10681400054A13440393039B1B6800E000231846B6
:1068240005B05DF804FB00BF04DF020084B00190F2
:106834000B468DF80330019BDB00174A1344029387
:106844009DF80330013B032B1CD801A252F823F01E
:10685400656802006D680200756802007F680200C6
:1068640002238DF80F3011E004238DF80F300DE072
:10687400029B1B798DF80F3008E0029B5B798DF841
:106884000F3003E000238DF80F3000BF9DF80F3068
:10689400184604B0704700BF04DF020084B00190C2
:1068A400009100238DF80F30019B1B7803F0040343
:1068B400DBB2002B24D0019B1B78C3F30103DBB2B2
:1068C400012B02D0022B0CD017E0009B1B68019A0D
:1068D4001288C2F38312D2B213449A1C009B1A602A
:1068E4000BE0009B1B68019A5288C2F3891292B292
:1068F40013449A1C009B1A6000BF01238DF80F30CB
:106904009DF80F30184604B07047000000B58BB0F6
:106914000023ADF826303E4802F058F83D4802F016
:1069240055F83D4B5B6804933B4B9B680693049A74
:10693400069B134002339B00374A134404330893E5
:1069440004AB19460898FFF7A9FF0346002B09D0AA
:10695400049A069B134002339B002F4A13440433CA
:106964000893EDE700BF0023079311E0049B5A1C32
:106974000492069A1340079A920001A90A442649F0
:1069840002339B000B445B681360079B013307933E
:10699400079B012BEAD99DF80430C3F30103DBB252
:1069A400012B10D0022B1CD1BDF80A30ADF82630D3
:1069B400BDF80630C3F389139BB203339A08049BD2
:1069C4001344049313E0BDF80A30ADF82630BDF843
:1069D4000430C3F38313DBB21A46049B13440493B9
:1069E40005E00E494FF4BF7005F082FA00BF094874
:1069F40001F0F8FF0590059B002B02D0049B064A8A
:106A04005360BDF8263018460BB05DF804FB00BF98
:106A1400F01E0020EC1E0020D81A002000E0020026
:106A240000B585B00021074801F059FF0390039B8E
:106A34000293029B83F310030193019B184605B054
:106A44005DF804FBF41E002000B589B003900291A8
:106A540001920093039B1B0C0793FFF7E1FF069041
:106A6400FFF788FE0246079B934204D3214940F274
:106A7400A31005F03DFA069B1904009B5A1C0A9BBF
:106A84001340079A0A431C4902339B000B445A6083
:106A9400009A0A9B134002339B00174A13440433A1
:106AA4000593039B03F00703D9B2059A137861F3A6
:106AB400C5031370019B03F00F03D9B2059A138821
:106AC40061F389131380029BC3F31501059A1368BC
:106AD40061F39F231360059A1378012161F3010385
:106AE4001370059A13786FF38203137000BF09B013
:106AF4005DF804FB00E00200D81A002000B58DB058
:106B04000390029113468DF80730039B02330A93D6
:106B140001238DF8273000238DF81B300DF11B0362
:106B2400184601F08FFE404B1A68029B1A603E4BD8
:106B34009A683D4B59683C4B1B68CB1A134401338C
:106B44000B9314E00121394801F010FFFFF7DEFE3A
:106B540007900799354801F009FF334B9A68324B87
:106B64005968314B1B68CB1A134401330B930A9AAF
:106B74000B9B9A42E6D89DF82730002B48D000237F
:106B840005939DF80730002B17D09DF8143001228F
:106B940062F301038DF814309DF8143043F00403BC
:106BA4008DF81430039B03F00F03DAB2BDF81430F0
:106BB40062F38913ADF8143016E09DF81430022204
:106BC40062F301038DF814309DF8143043F004038C
:106BD4008DF81430039BC3F309039AB2BDF8163041
:106BE40062F38F13ADF816300F4B1A680E4B9B6887
:106BF400134002339B000C4A134404330893059A50
:106C0400089B1A60084B1A680A9B1344064A1360CF
:106C14009DF81B30184601F02BFE9DF827301846CE
:106C24000DB05DF804FB00BFD81A0020F41E00204C
:106C340000B58BB005900491039202931F4B9B689F
:106C4400079306AB012219460298FFF757FF034644
:106C5400002B24D0069B023309930023089311E0F0
:106C6400089B9B00039A1A44099B591C0991079994
:106C74000B401268114902339B000B445A60089B75
:106C840001330893089A029B9A42E9D3069A079B18
:106C940000931346029A04990598FFF7D5FE074B13
:106CA40093F82034002B05D000BF00F065F80346AC
:106CB400002BFAD100BF0BB05DF804FBD81A0020FA
:106CC40000B583B00190009100230022009901983F
:106CD400FFF7AEFF00BF03B05DF804FB00B587B05B
:106CE400039002910192019B059305AA0123029945
:106CF4000398FFF79DFF00BF07B05DF804FB00B5E4
:106D040087B00390029101920093019B0493009B2E
:106D1400059304AA022302990398FFF789FF00BF91
:106D240007B05DF804FB00B58BB0039002910192AB
:106D34000093019B0593009B06930C9B07930D9B6B
:106D440008930E9B099305AA052302990398FFF75C
:106D54006FFF00BF0BB05DF804FB0000054B5A68E1
:106D6400044B1B689A420CBF01230023DBB2184674
:106D7400704700BFD81A002000B599B0FFF7EEFFA6
:106D84000346002B01D00023BEE19B4B0022C3F835
:106D94001824BFF34F8F00BF974B5B680493964B47
:106DA4009B681093049A109B134002339B00924AF1
:106DB40013440433119300231793002316930023E1
:106DC4000F9304AB19461198FFF768FD0346002B97
:106DD40019D0894BD3F81834002B14D1864B1A6878
:106DE400049B9A4205D8844B1B68834A5360002352
:106DF4008AE1049A109B134002339B007E4A134499
:106E040004331193DDE70023159311E0049B5A1C0E
:106E14000492109A1340159A920001A90A447649E3
:106E240002339B000B445B681360159B013315937D
:106E3400159B012BEAD99DF8043003F00303DBB260
:106E4400022B40F09C80BDF80630C3F389139BB23B
:106E54000D93BDF80630C3F389139BB2502B28BFA2
:106E640050239BB20C930C9BC3F309039AB2BDF855
:106E7400063062F38F13ADF806300C9B08330B9386
:106E84009DF80430C3F3C203DBB20F930B995B4844
:106E940002F093FA1790179B002B00F0D1801798FB
:106EA40002F01CFB01A9169B0822179802F0D2FBE2
:106EB400169B08331693049BDA43109B134001334B
:106EC4009B000A930C9A0A9B9A4242D90A9B002B74
:106ED40008D0049A109B134002339B00464A134483
:106EE400043300E0464B08930A9B002B02D00A9B14
:106EF400DBB201E00C9BDBB28DF81F300A9B002B48
:106F040001D03F4B00E0002306930A9B002B06D0E0
:106F14000C9BDAB20A9BDBB2D31ADBB200E000238B
:106F24008DF817309DF81F20169B0899179802F0CA
:106F340091FB9DF81F30169A13441693069B002B61
:106F440016D09DF81720169B0699179802F082FB1D
:106F54000EE0049A109B134002339B00264A13440C
:106F640004330993169B0C9A0999179802F072FB43
:106F74000D9B03339A08049B1344049360E09DF82B
:106F8400043003F00303DBB2012B59D1BDF8043004
:106F9400C3F38313DBB2062B28BF0623DAB2BDF892
:106FA400043062F38913ADF80430BDF80430C3F340
:106FB4008313DBB202330E939DF80430C3F3C20390
:106FC400DBB20F930E9B9B0019460C4802F0F5F9B7
:106FD4001790179B002B33D0179802F07FFA01A962
:106FE400169B0822179802F035FB169B083316935C
:106FF400002315931BE000BFD81A0020F0DE020026
:10700400E41A0020049B5A1C0492109A1340023381
:107014009B003F4A1344191D169B0422179802F043
:1070240019FB169B04331693159B01331593BDF876
:107034000430C3F38313DBB21A46159B9342E1D3A6
:10704400179B002B40D0324BD3F810341493304BA1
:10705400D3F81834002B1BD0179802F04EFA4DE0E9
:1070640000238DF84F301498FFF742FB0346002BA2
:1070740002D001238DF84F309DF84F30002B03D000
:1070840017991498FFF7F0FA149BDB681B681493A4
:10709400149B002BE4D1179802F02FFA00238DF8EB
:1070A40003300DF10303184601F0CCFB184BD3F861
:1070B4001834002B02D1049B154A53609DF8033009
:1070C400184601F0D5FB19E0114BD3F81034129394
:1070D40006E01298FFF7E2FA129BDB681B68129332
:1070E400129B002BF5D10B4A0B4BD31ADB081B0464
:1070F40043F0020309491846FFF7E2FDFFF72EFEAD
:10710400034683F00103DBB2184619B05DF804FBB3
:10711400D81A00202CDF020004DF020050E0020035
:1071240000B585B00023039323E0164BD3F8103445
:10713400029301238DF807300FE00298FFF7C7FA96
:1071440003461A46039B934203D100238DF807306C
:1071540006E0029BDB681B680293029B002BECD1C8
:107164009DF80730002B01D0039B07E0039B0133FC
:107174000393039B092BD8DD4FF0FF33184605B06A
:107184005DF804FBD81A002000B585B001900B46C9
:107194008DF80330FFF7C4FF0390039BB3F1FF3F67
:1071A40001D1039B22E0039BDBB219460198FFF750
:1071B40081FA104BD3F81034002B08D10D4A019BEF
:1071C400C2F81034019BDB6800221A600DE0094B01
:1071D400D3F81034DA68019BDB6812681A60054B37
:1071E400D3F81034DB68019A1A60039B184605B083
:1071F4005DF804FBD81A002000B583B00D4BD3F81A
:10720400103401930B4B012283F8202409E00198E8
:10721400FFF765FA0198FFF735FA019BDB681B68F5
:107224000193019B002BF2D100BF00BF03B05DF8B6
:1072340004FB00BFD81A002082B00190009100BF67
:1072440002B0704710B584B003900291039BDB88B1
:10725400002B0AD0039BDB881A461F4B009313466E
:107264001E4A1F49029801F0F9FC039B1B7A052B67
:107274002ED0039B5B7A002B12D0039B9B881A466B
:10728400039B1B7A19461046FFF7D0FA03461A46A9
:10729400144B53F822301A461349029801F0DEFCCD
:1072A400039B1B6819460298FFF7C6FF039B1B7AD2
:1072B4001A460E4B53F82240039B9B880021184624
:1072C400FFF794FA034622460949029801F0C6FCE6
:1072D40000BF04B010BD00BF84E0020094E00200CF
:1072E400CCE00200C4180020E4E00200B018002042
:1072F400E8E0020000B585B00390029113468DF8D2
:107304000730039B1B7A052B0FD0039B5B7A002B62
:1073140006D00D4B1B681A460C49029801F09EFCDE
:107324000B49029801F09AFC07E09DF80730002B06
:1073340003D00749029801F091FC029801F06CFC1B
:1073440000BF05B05DF804FBC4180020E4E00200AF
:10735400F4E0020030B58BB00790069105920493D7
:107364000E9B1B7B8DF827300E9B00221A730E99FF
:107374000498FFF767FF059B062B7FD801A252F8FC
:1073840023F000BFA5730200AF730200BF730200B5
:10739400D3730200F17302001974020049740200ED
:1073A40007990E9801F05AFC69E0069B1B681A467F
:1073B40007990E9801F052FC61E0069B1A68069B3F
:1073C40004331B6807990E9801F048FC57E0069BAC
:1073D4001A68069B04331968069B08331B680093DC
:1073E4000B4607990E9801F039FC48E0069B196892
:1073F400069B04331868069B08331B68069A0C32F4
:1074040012680192009303460A4607990E9801F008
:1074140025FC34E0069B1868069B04331C68069B15
:1074240008331B68069A0C321268069910310968F1
:107434000291019200932346024607990E9801F0A7
:107444000DFC1CE0069B1C68069B04331D68069B10
:1074540008331B68069A0C321268069910310968C1
:1074640006981430006803900291019200932B4611
:10747400224607990E9801F0F1FB00E000BF0022BC
:107484000E990498FFF736FF0E9B9DF827201A7378
:1074940000BF0BB030BD00BF00B587B003900291B0
:1074A40001920093029B082B5CD8009B1B7B8DF8F8
:1074B4001330009B00221A7300990198FFF7C2FE53
:1074C4000023059314E0059A029B9A4209D2039A79
:1074D400059B13441B781A462449009801F0BEFB0F
:1074E40003E02349009801F0B9FB059B01330593A0
:1074F400059B072BE7D91F49009801F0AFFB002338
:10750400059322E0059A029B9A4217D2039A059B9F
:1075140013441B788DF812309DF81230184606F08B
:1075240021FC0346002B02D09DF8123000E02E23EC
:107534001A461149009801F091FB03E00F490098A5
:1075440001F08CFB059B01330593059B072BD9D9CF
:10755400012200990198FFF7CDFE009B9DF81320AE
:107564001A7300E000BF07B05DF804FBF8E0020006
:1075740000E1020004E1020008E102000CE1020063
:107584002DE9F04F91B0099000238DF83F30A6E02B
:10759400594B1A689DF83F30DB0013440E930E9B41
:1075A4001B781C464FF001024FF00003A4F12001A8
:1075B400C4F1200003FA04FB02FA01F14BEA010BC7
:1075C40022FA00F04BEA000B02FA04FACDE90CAB04
:1075D4004A4BD3E90001DDE90C2300EA02040094DC
:1075E4000B400193DDE90034234373D0DDE90C2320
:1075F400D1430291DB430393404BD3E90023DDE9FC
:10760400024521461140049129460B4005933B4B0A
:10761400DDE90412C3E900120E9B1B78184603F03F
:10762400B3FE03468DF82F300E9B1B781C464FF09B
:1076340001024FF00003A4F12001C4F1200003FA79
:1076440004F702FA01F10F4322FA00F0074302FAA9
:1076540004F62B4BD3E9002306EA020106913B40D2
:1076640007939DF82F004FF000010E9B1B781C46DA
:10767400A4F12003C4F1200201FA04F900FA03F38F
:1076840049EA030920FA02F249EA020900FA04F875
:10769400DDE906344C4508BF43451BD19DF82F2036
:1076A4000E9B5B78012B0CBF01230023DBB29A42B3
:1076B4000CBF01230023DBB20A930E9B5B68002BF3
:1076C40008D00E9B5C680E9B1A780A9BDBB21946A5
:1076D4001046A0479DF83F3001338DF83F30094BE9
:1076E4001A789DF83F309342FFF452AF00BF00BFB9
:1076F40011B0BDE8F08F00BFFC1E0020301F002039
:10770400281F0020001F00202DE9704F90B00B901F
:107714000B468DF82B304FF001024FF000030B9E07
:10772400A6F12001C6F1200003FA06F502FA01F1E0
:107734000D4322FA00F0054302FA06F4CDE90E45A2
:10774400384B184600F0E8FF0D900D9B002B64D1D8
:10775400354BD3E90001DDE90E2300EA020400946D
:107764000B400193DDE90034234341D10B9803F02E
:107774000BFE0346002B0FD02C4BD3E90001DDE9AF
:107784000E2340EA020402940B430393274BDDE9E2
:107794000212C3E9001213E0DDE90E236FEA020AC4
:1077A4006FEA030B214BD3E900230AEA0201049197
:1077B4000BEA030305931D4BDDE90412C3E9001230
:1077C400194BD3E90001DDE90E2340EA02040694D3
:1077D4000B430793144BDDE90612C3E90012114869
:1077E400134B1B680022194600F064FF0D9015E04E
:1077F400DDE90E236FEA02086FEA03090A4BD3E9B5
:10780400002308EA0201089109EA03030993064BDD
:10781400DDE90812C3E9001200E000BF10B0BDE8C2
:10782400708F00BF081F0020301F0020281F002079
:10783400041F002000B58BB003900B4601928DF815
:107844000B30019B042B01D807235AE003F08EFC74
:10785400034683F00103DBB2002B09D003F034FCB0
:107864000990099B0893089B002B01D0089B48E0D2
:10787400264A039B1360264A9DF80B301370254A51
:10788400019B136024494FF000024FF00003C1E94B
:10789400002322494FF000024FF00003C1E9002306
:1078A40022E09DF80B30DB00039A1344079305ABE9
:1078B40000210A461A800A469A7003238DF8143070
:1078C400079B9B788DF81530079B1B78184605ABF2
:1078D400134A194603F056FC0990099B0693069B2C
:1078E400002B01D0069B0CE09DF80B305A1E8DF83E
:1078F4000B20002BD5D10B4A00210B4800F0AAFE27
:10790400034618460BB05DF804FB00BFFC1E0020C4
:10791400001F0020041F0020281F0020301F00200B
:107924000D7702008575020010E1020000B583B0F6
:10793400114B1B68002B03D11049BA2004F0D8FA6C
:10794400002301930CE00C4B1A68019BDB001344E9
:107954001B780121184603F08FFC019B013301932E
:10796400074B1B781A46019B9342ECD3002318461D
:1079740003B05DF804FB00BFFC1E002014E102000C
:10798400001F002086B003900291019201238DF81C
:1079940017309DF81730214A039B13601F4A029B3E
:1079A40053601E4A019B9360039B44F2010293427D
:1079B40013D0039B44F20202934221D1019B174A44
:1079C400D360164BDB681B881A46144B9A61134B21
:1079D400DB685B68114AD36112E0019B0F4A1361B3
:1079E4000E4B1B699B680D4A53610C4B1B691B684A
:1079F4000A4A9361094B1B695B68084AD36100BF5B
:107A040072B600BF00BF9DF81730DBB2002BFAD16D
:107A140062B600BF00BF06B0704700BF381F002029
:107A240000B583B002900091019244F201007146C6
:107A34006A4600F003F803B000BD00BF30B58BB058
:107A440007900691059272B600BFFFF7D5FB00BF01
:107A5400FFF792F90346002BFAD1079B44F2020286
:107A640093422FD0079B44F20202934269D8079BAA
:107A740044F20102934237D0079B44F2010293423D
:107A84005FD8079B012B05D0079B41F2010293426B
:107A94000CD056E0394A3A4BD31ADB081B0443F0A6
:107AA400010338491846FFF70BF957E0334A344BC2
:107AB400D31ADB081B0443F0010333491846FFF7CC
:107AC400FFF84BE0059B09932C4A2D4BD31ADB0896
:107AD4001B0443F00100099B5B681A46099B1B8841
:107AE4002A49FFF70CF939E0059B0893234A244BF4
:107AF400D31ADB081B0443F00104089B9D68089B10
:107B04009B68184601F0FCFE03461846089B5B6818
:107B14001946089B1B68069A02920193009103463A
:107B24002A461B492046FFF7FEF8144A144BD31A81
:107B3400DB081B0443F0010316491846FFF7C0F89D
:107B44000CE00E4A0E4BD31ADB081B0443F001036E
:107B5400069A11491846FFF7C1F800BF0F4B1B687E
:107B640003F00103002B00D000BE059A0699079884
:107B7400FFF708FF00BF0BB030BD00BF2CDF0200D1
:107B840004DF020060E1020080E10200A4E10200DF
:107B9400C0E10200E8E10200FCE10200F0ED00E0D7
:107BA40082B003468DF807309DF8073003F01F02BA
:107BB40005499DF907305B09012000FA02F241F8FA
:107BC400232000BF02B0704700E100E082B003460A
:107BD4008DF807309DF8073003F01F0206499DF920
:107BE40007305B09012000FA02F2203341F8232018
:107BF40000BF02B0704700BF00E100E082B003465E
:107C04008DF807309DF8073003F01F0206499DF9EF
:107C140007305B09012000FA02F2403341F82320C7
:107C240000BF02B0704700BF00E100E082B003462D
:107C34008DF807309DF8073003F01F0206499DF9BF
:107C440007305B09012000FA02F2603341F8232077
:107C540000BF02B0704700BF00E100E082B00346FD
:107C640000918DF807309DF90730002B0CDA009B4A
:107C7400DAB20C499DF8073003F00F03043B5201BC
:107C8400D2B20B441A7609E0009BDAB206499DF998
:107C940007305201D2B20B4483F8002300BF02B074
:107CA400704700BF00ED00E000E100E000B585B0E2
:107CB4000190019B002B0AD0074B43F0010303936F
:107CC400019B9B010293039B0298984700E000BF2D
:107CD40005B05DF804FB00BF20E2020000B583B0EC
:107CE4000190064A019BC2F8083506211120FFF7CE
:107CF400B5FF00BF03B05DF804FB00BF00100140F6
:107D040008B50D4B4FF48032C3F844230A4B4FF4AB
:107D14008032C3F804231120FFF788FF1120FFF7F6
:107D24003FFF054B01221A602F20FFF7BFFF034BD3
:107D340001221A7000BF08BD001001407620002007
:107D440008B51120FFF742FF0E4B4FF48032C3F801
:107D540048230C4B4FF48032C3F80823094B01220B
:107D64005A602F20FFF7A2FF064B01229A60064BB0
:107D740000221A602F20FFF799FF044B00221A708B
:107D840000BF08BD001001406820002076200020BC
:107D9400024BD3F804351846704700BF0010014069
:107DA40082B001900091019A009BD31A23F07F4383
:107DB400184602B07047000082B00190034A019B4C
:107DC400C2F8403500BF02B0704700BF0010014048
:107DD40086B00190284B1B68002B03D1264A019BD7
:107DE400136045E0019B1A68234B1B681B689A4289
:107DF40010D8214B1B681968019B1A681E4B1B681D
:107E04008A1A1A601C4B1A68019BDA611A4A019B90
:107E140013602DE0019B1B680393174B1B680593AC
:107E2400154B1B68049309E0049B1B68039AD31A3F
:107E34000393049B0593049BDB690493049B002B2D
:107E440004D0049B1B68039A9A42EDD8049B002B30
:107E540005D0049B1A68039BD21A049B1A60019BE9
:107E6400039A1A60019B049ADA61059B019ADA610C
:107E740000BF06B0704700BF6420002000B587B083
:107E840001902A4B1B680393284B1B680593059BA1
:107E9400049308E0049A019B9A4208D0049B05933A
:107EA400049BDB690493049B002BF3D100E000BF27
:107EB400049B002B01D1002333E0059A049B9A42D2
:107EC40014D11A4B1B68DB69184A1360174B1B68E3
:107ED400002B0BD1164B01229A60164B00221A601C
:107EE400154B01221A702F20FFF7E0FE049B1B683C
:107EF4000293049BDA69059BDA61059BDB690493B1
:107F0400049B002B05D0049B1A68029B1A44049B13
:107F14001A60064B1B68039A9A4214BF012300237C
:107F2400DBB2184607B05DF804FB00BF64200020F4
:107F340000100140682000207720002008B511209F
:107F4400FFF75CFE00BF08BD08B51420FFF756FE1E
:107F540000BF08BD00B583B00190019B5B69019A25
:107F640092691046984700BF03B05DF804FB000017
:107F740000B585B02B4B1B68002B4ED0002301931A
:107F8400FFF706FF0246284B1B6819461046FFF709
:107F940007FF0290234B1B6803931DE0039B1B68A0
:107FA400029A9A421CD3039B1B68029AD31A029327
:107FB400039B1B68019A13440193039B0093039B47
:107FC400DB690393009B1B7C002B05D0009B0022E4
:107FD4001A740098FFF7BEFF039B002BDED100E06C
:107FE40000BF124B1A78124B1B789A420CD1104BDB
:107FF4001B780133DAB20E4B1A700D4B1B78022B2F
:1080040002D10B4B00221A70094B1B781946094AFE
:10801400019B42F82130FFF797FF00BF05B05DF8E0
:1080240004FB00BF6420002068200020742000208E
:10803400752000206C20002082B00190184B1A7823
:10804400184B1B789A4223D0154B1B780133DAB2B4
:10805400134B1A70124B1B78022B02D1104B0022C7
:108064001A700F4B1B781A460F4B53F82220019BB2
:108074001A60019B1A680D4B1B6813440B4A13606A
:108084000A4B1B6823F07F43084A1360012303E073
:10809400019B00221A600023184602B0704700BFFB
:1080A40074200020752000206C200020682000200F
:1080B40088B00390029101920023079338E0204B8B
:1080C4001B680693069B1B68039A9A4206D2069B7A
:1080D4001A68039BD21A069B1A602EE0069B1B6843
:1080E400039AD31A0393069B1B68079A13440793B6
:1080F400069B00221A60124B1B680593069BDB69E2
:108104000F4A1360069BDB68002B11D0029A079B71
:10811400134423F07F42069B5A60069BDA68069B51
:108124009A60019B1A68069BDA61019B059A1A60A2
:10813400034B1B68002BC2D100BF00BF08B07047BF
:108144006420002000B589B0019000238DF81F3011
:10815400664B1B680593AAE0019B002B05D0019B8D
:108164000693069BDB69019361E0614B1B781A4619
:1081740013465B001344DB005D4A13440433049349
:108184005B4B1B780133DAB2594B1A70584B1A788F
:10819400574B9B789A4202D1554B00221A70049B8C
:1081A4005B680693049B1B78032B1ED0032B7EDC99
:1081B400012B1FD0022B7AD1049B5B681846FFF772
:1081C4005DFE0346002B02D001238DF81F30069B71
:1081D40000221A746BE0454B1B680393039B002237
:1081E4001A74039BDB69414A1360404B1B68002BE4
:1081F400F1D15CE000BF069B1B7C002B00D056E055
:10820400049B9A68069B5A60049BDA68069B9A60F2
:10821400049B1A69069BDA60049B5A69069B9A615F
:10822400344B1B78002B02D0069B00225A60069B1D
:108234005A68314B1B68D31A23F07F432F4A934269
:108244000ED8069B5B682C4A126811461846FFF745
:10825400A7FD0246069B9B681A44069B1A6017E01A
:10826400254B1A68069B5B6819461046FFF798FD74
:108274000290069B9B68029A9A4206D2069B9A68D1
:10828400029BD21A069B1A6002E0069B00221A6027
:10829400069B00225A60069B00229A60069B0122DC
:1082A4001A74069B0022DA610698FFF791FD019B80
:1082B400002B7FF451AF0E4B1A780D4B5B789A422A
:1082C4007FF44AAF9DF81F30002B04D1074B1B6885
:1082D400059A9A4201D0012300E0002303F0010330
:1082E400DBB2184609B05DF804FB00BF642000202F
:1082F400581F00207720002068200020FEFF7F0008
:1083040010B588B00190274B1B68002B44D0254B37
:108314001B681B680793FFF73BFD0690224B1B6805
:10832400059305990698FFF73BFD03460333049331
:108334001E4B1B7883F00103DBB2002B01D0FFF747
:10834400DFFC049A079B934238BF1346059A1344F3
:108354000593059B23F07F4305930598FFF72CFDB8
:10836400FFF716FD039006990398FFF719FD0346DE
:10837400DC1C06990598FFF713FD03469C420DD9B2
:10838400FFF706FD03461846FFF716FD2F20FFF7FB
:108394008DFCFFF7D3FD01E0FFF7D2FC00BF08B06E
:1083A40010BD00BF6420002068200020762000203B
:1083B40000B587B00023019300238DF81730194BC3
:1083C4001B680493184B1B6803936B461846FFF70E
:1083D40033FE03468DF80B309DF80B30002B08D08C
:1083E400009B01AA04991846FFF762FE01238DF849
:1083F4001730019B1846FFF7A5FE0346002B02D059
:1084040001238DF817309DF81730002B02D0039804
:10841400FFF776FF054B00221A7000BF07B05DF826
:1084240004FB00BF68200020642000207720002087
:1084340082B003468DF80730034A9DF80730537025
:1084440000BF02B0704700BF581F002084B00190E5
:10845400144B5B7801338DF80F30124B9B789DF8E9
:108464000F209A4202D100238DF80F300D4B1B7858
:108474009DF80F209A4201D100230FE0019B9DF843
:108484000F201A70074B5B781A4613465B0013449F
:10849400DB00044A134404330293029B184604B0DD
:1084A400704700BF581F002000B589B003900291A7
:1084B400019200930023079300238DF816300DF1E9
:1084C4001603184600F0BEF90DF117031846FFF71E
:1084D400BDFF0690069B002B02D10423079318E0EE
:1084E400069B01221A70069B039A5A60FFF750FC00
:1084F4000246069B9A60069B029ADA60069B019AE2
:108504001A61069B009A5A619DF817301846FFF7C6
:108514008FFF9DF81630184600F0AAF9079B002B30
:1085240001D1FFF711FD079B184609B05DF804FB64
:1085340000B587B001900B468DF8033000230593F6
:1085440000238DF80E300DF10E03184600F07AF971
:108554000DF10F031846FFF779FF0490049B002BDD
:1085640002D1042305930BE0049B9DF803201A70A9
:10857400049B019A5A609DF80F301846FFF758FF84
:108584009DF80E30184600F073F9059B002B01D1BD
:10859400FFF7DAFC059B184607B05DF804FB000002
:1085A40008B50E4B0022C3F840210C4B0022C3F83F
:1085B40044210A4B0022C3F84821084B0022C3F887
:1085C4004C21064B0022C3F80021044B0022C3F8BF
:1085D4000421FFF7CDFC00BF08BD00BF001001401F
:1085E40008B5FFF7E5FE00BF08BD000008B5FFF7BA
:1085F400A7FB134B00221A70114B00225A70104B28
:108604000B229A700F4B00221A600F4B00221A7033
:108614000E4B00221A701420FFF708FB06211420C9
:10862400FFF71CFB1420FFF7BBFA0020FFF756FBF3
:10863400FFF7AEFB0346064A13600023184608BD45
:10864400581F002064200020742000207520002082
:108654006820002086B003900B4601928DF80B3001
:10866400134B9B78002B01D108231EE0019B002BA8
:1086740001D1072319E0039B002B01D1072314E048
:10868400039B1B681B7C002B01D008230DE0039B7C
:108694001B680593059B00221A74059B9DF80B200B
:1086A4005A74059B019A5A610023184606B0704714
:1086B400581F002000B587B0039002910192039BDC
:1086C4000593144B9B78002B01D108231EE0039BD8
:1086D400002B01D1082319E0029B042B01D80723A6
:1086E40014E0059B5B69002B01D108230EE0059B78
:1086F4005B7C012B01D1029B00E000230493019BCE
:10870400049A02990598FFF7CFFE0346184607B06E
:108714005DF804FB581F002000B585B00190019B53
:1087240003930D4B9B78002B01D1082310E0019B90
:10873400002B03D0039B5B69002B01D1082307E0C6
:10874400039B00221A7402210398FFF7F1FE0346EB
:10875400184605B05DF804FB581F002082B0EFF303
:1087640010830093009B019372B600BF019B1846CF
:1087740002B0704762B600BF00BF704700B585B055
:108784000190FFF7EBFF0390164B9B68002B1BD166
:10879400144B01229A60144BD3F88020134B1340DE
:1087A400104A1360104B114AC3F880200E4BD3F8C3
:1087B40084300C4A53600C4B4FF0FF32C3F88420D2
:1087C400019B00221A7002E0019B01221A70039B94
:1087D400002B01D1FFF7CEFF0023184605B05DF84A
:1087E40004FB00BF7820002000E100E0FC06FFBD90
:1087F40000B585B003468DF80730104B9B68002BFD
:1088040016D09DF80730002B12D1FFF7A7FF039075
:108814000B4A0A4B1B681360094A084B5B68536098
:10882400064B00229A60039B002B01D1FFF7A2FFA5
:108834000023184605B05DF804FB00BF7820002033
:1088440000E100E000B583B0019000F02BF803468E
:10885400012B03D00549432003F04AFB0198FFF79D
:108864008DFF00BF03B05DF804FB00BF28E20200E7
:1088740000B583B003468DF8073000F013F80346C3
:10888400012B03D00649512003F032FB9DF8073039
:108894001846FFF7ADFF00BF03B05DF804FB00BF4F
:1088A40028E2020084B0EFF305830193019BC3F334
:1088B40008030393039B002B0DD1EFF31483009360
:1088C400009B0293029B03F00103002B0CBF0123C6
:1088D4000023DBB200E00123184604B0704710B453
:1088E40087B001900091019B009A53E8004F104615
:1088F40043E8000191F0000FF7D10594049003912F
:10890400059B184607B05DF8044B704710B487B058
:1089140001900091019B009A53E8004F44EA020041
:1089240043E8000191F0000FF6D1059404900391FF
:10893400049B184607B05DF8044B704710B487B029
:1089440001900091019B009A53E8004F04EA020051
:1089540043E8000191F0000FF6D1059404900391CF
:10896400059B184607B05DF8044B704710B487B0F8
:1089740001900091019B009A53E8004F04EB020020
:1089840043E8000191F0000FF6D10594049003919F
:10899400049B184607B05DF8044B704710B487B0C9
:1089A40001900091019B009A53E8004FA4EB020050
:1089B40043E8000191F0000FF6D10594049003916F
:1089C400049B184607B05DF8044B704700B583B0AC
:1089D400019001210198FFF799FF0346184603B05F
:1089E4005DF804FB00B583B0019000210198FFF706
:1089F400A5FF0346184603B05DF804FB00B583B039
:108A040001900B468DF80330019B002B03D10849DC
:108A1400E82003F06DFA019BDA689DF803300199B0
:108A2400098A01FB03F31344184603B05DF804FB01
:108A340078E2020000B583B001900091019B002B05
:108A440003D10849F52003F053FA009B019AD26838
:108A54009B1A019A128AB3FBF2F3DBB2184603B0F5
:108A64005DF804FB78E2020000B585B00190019B3B
:108A7400002B01D10E234CE0019B1B68002B03D17A
:108A84002649FF2003F034FA019B5B68002B04D1D4
:108A940022494FF4807003F02BFA019B9B68002B52
:108AA40004D11E4940F2011003F022FA019BDB6855
:108AB400002B04D119494FF4817003F019FA019B7A
:108AC4001B8A002B04D1154940F2031003F010FA5D
:108AD400019B9A68019B5B68D31A8DF80F30019B48
:108AE4001B68019A52681A6007E0019B1A681368B0
:108AF400591C11609DF80F201A709DF80F305A1EF2
:108B04008DF80F20002BF0D1019B1B6800221A71F5
:108B14000023184605B05DF804FB00BF78E20200AC
:108B240000B585B00190019B002B04D11F494FF47F
:108B3400927003F0DDF90023039300238DF80A30CB
:108B44000DF10A031846FFF77DFE019B1B681A68A6
:108B5400019B5B689A421FD9019B1B681A68013A02
:108B64001A601B681B7819460198FFF747FF0390AA
:108B7400019B9A68019B1B681B68D31A8DF80B3004
:108B8400019B1B681B799DF80B209A4204D9019B19
:108B94001B689DF80B201A719DF80A301846FFF7E0
:108BA40067FE039B184605B05DF804FB78E20200FB
:108BB40010B584B001900091019B002B04D115499C
:108BC40040F2471003F094F9009B002B04D11149A3
:108BD4004FF4A47003F08CF9009B039300238DF8E9
:108BE4000B300DF10B031846FFF72CFE019B1B689D
:108BF4001C68621C1A6003990198FFF71BFF034667
:108C040023709DF80B301846FFF732FE00BF04B006
:108C140010BD00BF78E2020000B583B00190019B53
:108C2400002B03D10C49312003F062F9019B9B68AE
:108C3400002B0CD0019B5B69019A1069019A1168A1
:108C4400019A92689847019B00229A6000E000BF55
:108C540003B05DF804FB00BFC4E202000EB400B52B
:108C640084B00190019B002B03D11849422003F0EA
:108C74003FF9019B5B69002B03D11449432003F0A6
:108C840037F9019B1B68002B03D11049442003F0E2
:108C94002FF9019B5B68002B03D10C49452003F09D
:108CA40027F9059B002B0AD00023039306AB0393FB
:108CB40003AB1A460599019800F0B0F900E000BF33
:108CC40004B05DF804EB03B0704700BFC4E20200D7
:108CD40000B583B001900B468DF80330019B1A68F0
:108CE400019B9B68581C0199886013449DF80320DC
:108CF4001A70019B9A68019B5B689A4202D301989F
:108D0400FFF78AFF00BF03B05DF804FB00B587B02E
:108D1400039002910192009300230593009B03F0BA
:108D24000103002B24D00BE0029B01330293059B2B
:108D3400013305939DF8133019460398FFF7C8FFD4
:108D4400029B1B788DF813309DF81330002BEBD168
:108D540006E0019B013B019320210398FFF7B8FF34
:108D6400019A059B9A422ED9019B002BF1D12AE04E
:108D7400029B002B0BD0029805F077F8059006E0D3
:108D8400019B013B019320210398FFF7A1FF019A66
:108D9400059B9A420FD9019B002BF1D10BE0029B5A
:108DA40001330293059B013305939DF81330194653
:108DB4000398FFF78DFF029B1B788DF813309DF805
:108DC4001330002BEBD100BF07B05DF804FB0000AB
:108DD40000B589B00390029101920093029B07931E
:108DE4000123069307E0079A019BB2FBF3F3079371
:108DF400069B01330693079A019B9A42F3D2009A89
:108E0400069B9A4201D9009B06930B9B03F0010336
:108E1400002B22D10A9B002B1FD00B9B03F00203D3
:108E2400002B06D0009B002B03D130238DF8173084
:108E340002E020238DF8173008E00A9B013B0A93D7
:108E44009DF8173019460398FFF742FF0A9B002B41
:108E540003D0069A0A9B9A42EFD301230793009BFF
:108E6400012B03D9009B013B009309E0029A079B65
:108E7400B2FBF3F30493049A019B9A4200D205E0F7
:108E8400079B019A02FB03F30793E8E7029A079B07
:108E9400B2FBF3F30493049B079A02FB03F3029AD5
:108EA400D31A0293154A049B13441B78194603985A
:108EB400FFF70EFF079A019BB2FBF3F30793079B9F
:108EC400002BE3D10B9B03F00103002B11D00A9B71
:108ED400002B0ED006E00A9B013B0A932021039845
:108EE400FFF7F6FE0A9B002B03D0069A0A9B9A42D0
:108EF400F1D300BF09B05DF804FB00BF4CE30200EE
:108F040000B589B00590049103920293049B002B51
:108F1400B8BF5B4206930123079307E0039B069ABD
:108F240092FBF3F30693079B01330793039B069A83
:108F34009A42F3DA029A079B9A4201D9029B079359
:108F44000A9B002B0AD0049B002B04DB0B9B03F031
:108F54000403002B02D00A9B013B0A930B9B03F0F2
:108F64000203002B02D0029B002B16D00B9B03F0B4
:108F74000103002B11D10A9B002B0ED006E00A9BA3
:108F8400013B0A9320210598FFF7A2FE0A9B002BC0
:108F940003D0079A0A9B9A42F1D3049B002B07DA69
:108FA400049B5B4204932D210598FFF791FE08E092
:108FB4000B9B03F00403002B03D02B210598FFF730
:108FC40087FE0B9B03F00203002B19D00B9B03F0CD
:108FD4000103002B14D1029B002B11D10A9B002BFF
:108FE4000ED006E00A9B013B0A9330210598FFF757
:108FF4006FFE0A9B002B03D0079A0A9B9A42F1D377
:1090040004990B9B01930A9B0093029B039A059876
:10901400FFF7DEFE00BF09B05DF804FB00B58FB0BA
:10902400059004910392059B002B04D1B6494FF49B
:109034009F7002F05DFF059B5B69002B04D1B24970
:109044004FF4A07002F054FF059B1B68002B04D161
:10905400AD4940F2411002F04BFF059B5B68002BC9
:1090640004D1A9494FF4A17002F042FF049B002BE4
:1090740000F09381049B1B788DF83730049B0133F7
:1090840004939DF83730002B00F07E819DF8373033
:10909400252B40F06D8100230A9301230C93049B3C
:1090A4001B788DF837309DF83730302B0DD0302BAE
:1090B4001BDC2B2B11D02D2B17D10A9B43F0010362
:1090C4000A93049B0133049312E00A9B43F00203C6
:1090D4000A93049B013304930AE00A9B43F00403BC
:1090E4000A93049B0133049302E000230C9300BF12
:1090F4000C9B002BD3D1002309939DF837302A2BE6
:109104000CD1039B1B68191D039A11601B68099AF3
:1091140013440993049B013304931AE0049B1B78C2
:109124008DF837309DF837302F2B12D99DF8373012
:10913400392B0ED8049B01330493099A13469B00E0
:1091440013445B001A469DF837301344303B0993AF
:10915400D3E700230B93049B1B788DF837309DF8DD
:1091640037302E2B1DD1049B01330493049B1B78B1
:109174008DF837309DF837302F2B12D99DF83730C2
:10918400392B0ED8049B013304930B9A13469B008E
:1091940013445B001A469DF837301344303B0B935D
:1091A400E4E7049B1B788DF837309DF837306C2B3F
:1091B40003D09DF83730682B07D1049B0133049307
:1091C400049B1B788DF83730EFE79DF83730252B5B
:1091D40000F0C480252BC0F2C680782B00F3C38036
:1091E400582BC0F2C080583B202B00F2BC8001A257
:1091F40052F823F0E79202006B9302006B93020093
:109204006B9302006B9302006B9302006B9302005A
:109214006B9302006B9302006B9302006B9302004A
:109224007D9202009F9202006B9302006B930200F6
:109234006B9302006B9302009F9202006B930200F7
:109244006B9302006B9302006B9302006B9302001A
:109254006B9302002D9302006B9302006B93020048
:10926400119302006B930200C39202006B930200FD
:109274006B930200E7920200039B1B68191D039A7B
:1092840011601B680C930C9B8DF81F309DF81F30E8
:1092940019460598FFF71CFD66E0039B1B68191D22
:1092A400039A11601B680C930A9B0193099B00931A
:1092B4000B9B0A220C990598FFF722FE54E0039BAE
:1092C4001B68191D039A11601B680C930C990A9B67
:1092D4000193099B00930B9B0A220598FFF778FDE5
:1092E40042E0039B1B68191D039A11601B680C93D1
:1092F4000C990A9B0193099B00930B9B10220598E0
:10930400FFF766FD30E000BF04E30200039B1B6827
:10931400191D039A11601B6808930A9B099A0899FE
:109324000598FFF7F3FC1FE0039B1B68191D039AC4
:1093340011601B680C9330210598FFF7C9FC782154
:109344000598FFF7C5FC0C990023019308230093AB
:10935400082310220598FFF73BFD05E02521059819
:10936400FFF7B6FC00E000BF049B0133049305E063
:109374009DF8373019460598FFF7AAFC049B1B7823
:10938400002B7FF477AE00E000BF059B1B7B002B16
:1093940004D00598FFF740FC00E000BF0FB05DF873
:1093A40004FB00BF00B583B001900198FFF75CFB9C
:1093B4000346184603B05DF804FB00B58BB001907A
:1093C4000091019B1B8A043B0793009A079B13445B
:1093D400DA1C079BB2FBF3F38DF81B300198FFF7FF
:1093E4009FFB0590059B002B01D1002338E0059BD2
:1093F40000221A71059B01225A71079B9AB2059BA0
:10940400DA80059B09939DF81B30013B0493099B6B
:10941400019A1A60002308931DE00198FFF780FB6E
:109424000390039B002B0ED0059B5B790133DAB2CA
:10943400059B5A71099B039A1A60039B019A1A604F
:10944400039B099304E0059800F00EF8002307E05D
:10945400089B01330893089A049B9A42DDD3059B29
:1094640018460BB05DF804FB00B58BB00190019B6E
:109474000793079B5B798DF81B30019B08939DF83C
:109484001B30013B05930023099305E0089B1B68EF
:109494000893099B01330993099A059B9A42F5D3D2
:1094A400089B1B680493019B0893002309930BE01A
:1094B400089B1B68039308990498FFF779FB039BA7
:1094C4000893099B013309939DF81B30099A9A422A
:1094D400EED300BF00BF0BB05DF804FB00B585B050
:1094E4000190019B0393039B043301211846FFF76A
:1094F4003DFA00BF05B05DF804FB00B587B00190EC
:10950400019B0593059B043301211846FFF746FA96
:109514000346039303AB0493049B1B78002B02D1F3
:109524000198FFF7A1FF00BF07B05DF804FB00003E
:1095340000B591B00390029101920093039B002B1C
:1095440003D14349B62002F0D3FC039B0993039B48
:109554000F93099BDB881A46099B5B7903FB02F393
:10956400043B0893009A089B9A4203D33849C420C9
:1095740002F0BEFC099BDB880793009B1A1D079B26
:10958400B2FBF3F30E93009B0433079AB3FBF2F29E
:10959400079901FB02F29B1A0D93019B1A68009B29
:1095A4001344089A9A4203D2089A009BD31A01E002
:1095B400019B1B680C93019B0C9A1A6005E00F9B9E
:1095C4001B680F930E9B013B0E930E9B002BF6D151
:1095D40000230B93079A0D9BD31A0A930A9A0C9BA8
:1095E400934228BF13460A932AE0029A0B9B134422
:1095F40006930F9A0D9B1344043305939DF848304A
:10960400002B05D00A9A0599069804F0B0FB04E0F3
:109614000A9A0699059804F0AAFB00230D930F9B60
:109624001B680F930C9A0A9BD31A0C930B9A0A9BF0
:1096340013440B93079A0C9B934228BF13460A9337
:109644000C9B002BD1D100BF00BF11B05DF804FB0F
:109654005CE3020000B589B0059004910392029383
:10966400039B079307AA00230093029B0499059880
:10967400FFF75EFF079B039A9A4203D00349F62043
:1096840002F036FC00BF09B05DF804FB5CE30200A5
:1096940000B589B00590049103920293039B07934C
:1096A40007AA01230093029B04990598FFF740FF42
:1096B400079B039A9A4204D004494FF4807002F045
:1096C40017FC00BF09B05DF804FB00BF5CE30200B7
:1096D40082B003468DF807309DF8073003F01F026F
:1096E40006499DF907305B09012000FA02F2603354
:1096F40041F8232000BF02B0704700BF00E100E042
:1097040000B583B00190019B002B03D10649722060
:1097140002F0EEFB019B00221A60BFF35F8F00BFD3
:1097240000BF03B05DF804FBFCE3020041DF7047B7
:1097340000BF184600B585B000238DF803300DF145
:1097440003031846FFF77EF8F1EE103A0193019BEC
:109754000393039B23F09F030293029BE1EE103AD1
:1097640000BFBFF35F8F00BF2620FFF7B1FF9DF856
:1097740003301846FFF77CF8039B03F00703002B24
:1097840003D004497D2002F0B3FB00BF05B05DF8AF
:1097940004FB00BF40E4020008B5064B00221A7027
:1097A4000548FFF7ADFF0549054800F04DF80023D3
:1097B400184608BD882000208420002090E4020080
:1097C4008C20002000B583B0FFF7B4FF03F0B0FF96
:1097D4000346002B0ED0FFF7A9FF0190019B002B3D
:1097E4000ED0019B022B0BD007494FF4B07002F04E
:1097F4007FFB05E020BF00BF40BF00BF20BF00BF0C
:1098040000BF03B05DF804FB40E4020082B00190A5
:10981400019B9B6800229A60019B9B6800221A614D
:10982400019B9B6800225A61019B9B680022DA60BD
:10983400019B9B6800225A60019B9B6800221A606E
:1098440000BF02B07047000000B583B001900091E2
:10985400019B002B03D11049502002F049FB009BCF
:10986400002B03D10C49512002F042FB019B009ACA
:109874001A60019B1B681A68019B5A60019B5A6815
:10988400019B1B685B689A4202D1019B00225A60CB
:1098940000BF03B05DF804FB9CE4020000B583B094
:1098A4000190019B002B03D11449632002F020FB9B
:1098B400019B1B68002B03D11049642002F018FBA4
:1098C400019B5B68002B14D0019B5B681A46019BCB
:1098D4001B689B6813441A46019B5A60019B5A6893
:1098E400019B1B685B689A4204D1019B00225A6069
:1098F40000E000BF03B05DF804FB00BF9CE402007D
:1099040000B585B00190019800F00EF80390039B18
:10991400002B01D0039B00E0024B184605B05DF814
:1099240004FB00BF00E5020086B00190164B0593CE
:10993400164B04931FE0049A059BD31ADB10DA0F2D
:1099440013445B10DB00059A13440393039B1B68C9
:109954000293029A019B9A4202D9039B04930AE060
:10996400029A019B9A4203D2039B0833059302E0B7
:10997400039B5B6804E0059A049B9A42DBD30023B3
:10998400184606B0704700BF00E9020028EA02004A
:10999400BFF34F8F00BF074BDB6803F4E062054958
:1099A400054B1343CB60BFF34F8F00BF00BF00BF15
:1099B400FCE700BF00ED00E00400FA05024B034A97
:1099C4001A6000BF704700BFE81800200090D00361
:1099D40008B500F069F90346002B06D0A04B1B68BC
:1099E4001B0AA04A03F01F03136000F089F9034621
:1099F400002B02D09C4B9D4A1A6000F09DF903464F
:109A0400002B06D09A4B1B685B0B9A4A03F00703A2
:109A1400136000F0BDF90346002B05D0964BDB68BC
:109A2400954A23F08073D36000F0CEF90346002BEF
:109A34000ED04FF080430022C3F80C214FF0804336
:109A44000022C3F810214FF080430022C3F83825C8
:109A540000F0E6F90346002B02D0884B03221A607B
:109A640000F0FAF90346002B0BD0854B05221A604F
:109A7400844B01221A60844B00221A60834B3F22DC
:109A84001A6000F005FA0346002B76D04FF080539D
:109A94007F4AD3F80434C2F820354FF080537C4A0F
:109AA400D3F80834C2F824354FF08053784AD3F8F9
:109AB4000C34C2F828354FF08053754AD3F810346B
:109AC400C2F82C354FF08053714AD3F81434C2F8DD
:109AD40030354FF080536E4AD3F81834C2F8343519
:109AE4004FF080536A4AD3F81C34C2F840354FF023
:109AF4008053674AD3F82034C2F844354FF080537A
:109B0400634AD3F82434C2F848354FF08053604A8E
:109B1400D3F82834C2F84C354FF080535C4AD3F85C
:109B24002C34C2F850354FF08053594AD3F83034AE
:109B3400C2F854354FF08053554AD3F83434C2F840
:109B440060354FF08053524AD3F83834C2F8643544
:109B54004FF080534E4AD3F83C34C2F868354FF086
:109B640080534B4AD3F84034C2F86C354FF08053DD
:109B7400474AD3F84434C2F8703500F0A5F90346D7
:109B8400002B05D0434B1B68434A03F04F0313607B
:109B940000F0C6F90346002B0DD04FF08043D3F8F4
:109BA400003403F00103002B05D04FF080436FF025
:109BB4000102C3F8002400F0DFF90346002B05D0AE
:109BC400364B1B68354A43F480631360344BD3F837
:109BD4008830334A43F47003C2F88830BFF34F8FA0
:109BE40000BFBFF36F8F00BF4FF01023D3F80032D4
:109BF400002B05DB4FF01023D3F80432002B2BDAB3
:109C0400284B0122C3F8042500BF264BD3F80034A7
:109C1400002BFAD04FF010231522C3F8002200BF06
:109C2400204BD3F80034002BFAD04FF01023152228
:109C3400C3F8042200BF1B4BD3F80034002BFAD026
:109C4400184B0022C3F8042500BF164BD3F8003488
:109C5400002BFAD0FFF79CFEFFF7B0FE00BF08BD53
:109C6400240300104035014074C007400DF0ADBA24
:109C7400440200103C050040F0ED00E0A005004067
:109C840010560040885600401856004014560040B4
:109C940000C0004058020010E40E00403C17004091
:109CA40000ED00E000E00140124B1B68DBB2062B24
:109CB4001DD1114B1B6803F00F03002B17D10F4B61
:109CC4001B6803F0F003302B01D1012310E00B4B90
:109CD4001B6803F0F003402B01D1012308E0074B7C
:109CE4001B6803F0F003502B01D1012300E0002393
:109CF40018467047E00F00F0E40F00F0E80F00F0A2
:109D04000A4B1B68DBB2062B0DD1094B1B6803F011
:109D14000F03002B07D1074B1B6803F0F003302B14
:109D240001D1012300E0002318467047E00F00F042
:109D3400E40F00F0E80F00F0124B1B68DBB2062BB7
:109D44001DD1114B1B6803F00F03002B17D10F4BD0
:109D54001B6803F0F003302B01D1012310E00B4BFF
:109D64001B6803F0F003402B01D1012308E0074BEB
:109D74001B6803F0F003502B01D1012300E0002302
:109D840018467047E00F00F0E40F00F0E80F00F011
:109D94000A4B1B68DBB2062B0DD1094B1B6803F081
:109DA4000F03002B07D1074B1B6803F0F003302B84
:109DB40001D1012300E0002318467047E00F00F0B2
:109DC400E40F00F0E80F00F0124B1B68DBB2062B27
:109DD4001DD1114B1B6803F00F03002B17D10F4B40
:109DE4001B6803F0F003302B01D1012310E00B4B6F
:109DF4001B6803F0F003402B01D1012308E0074B5B
:109E04001B6803F0F003502B01D1012300E0002371
:109E140018467047E00F00F0E40F00F0E80F00F080
:109E24000A4B1B68DBB2062B0DD1094B1B6803F0F0
:109E34000F03002B07D1074B1B6803F0F003302BF3
:109E440001D1012300E0002318467047E00F00F021
:109E5400E40F00F0E80F00F00A4B1B68DBB2062B9E
:109E64000DD1094B1B6803F00F03002B07D1074BDF
:109E74001B6803F0F003302B01D1012300E0002321
:109E840018467047E00F00F0E40F00F0E80F00F010
:109E94000A4B1B68DBB2062B0DD1094B1B6803F080
:109EA4000F03002B07D1074B1B6803F0F003502B63
:109EB40001D1012300E0002318467047E00F00F0B1
:109EC400E40F00F0E80F00F0124B1B68DBB2062B26
:109ED4001DD1114B1B6803F00F03002B17D10F4B3F
:109EE4001B6803F0F003302B01D1012310E00B4B6E
:109EF4001B6803F0F003402B01D1012308E0074B5A
:109F04001B6803F0F003502B01D1012300E0002370
:109F140018467047E00F00F0E40F00F0E80F00F07F
:109F2400124B1B68DBB2062B1DD1114B1B6803F0CF
:109F34000F03002B17D10F4B1B6803F0F003302BDA
:109F440001D1012310E00B4B1B6803F0F003402BFD
:109F540001D1012308E0074B1B6803F0F003502BE9
:109F640001D1012300E0002318467047E00F00F000
:109F7400E40F00F0E80F00F0064B1B68062B05D138
:109F8400054B1B68062B01D1012300E00023184672
:109F9400704700BF300100103401001000B583B0D9
:109FA4000190019B1B681F2B04D905494FF4E870ED
:109FB40001F09EFF4FF0A043184603B05DF804FB88
:109FC40028EA020000B585B00190084611461A46F9
:109FD40003468DF803300B468DF8023013468DF896
:109FE400013001AB1846FFF7D9FF03909DF8032019
:109FF4009DF802305B001A439DF801309B001A4320
:10A004009DF818301B0242EA03019DF81C301B0422
:10A01400019A1943039B02F5E07243F8221000BF32
:10A0240005B05DF804FB00B585B0039000230193EF
:10A03400002300930023012201210398FFF7C2FFAC
:10A0440000BF05B05DF804FB00B585B003900B4676
:10A054008DF80B309DF80B30002201920022009203
:10A06400002200210398FFF7ADFF00BF05B05DF8A3
:10A0740004FB00B585B0019001AB1846FFF78EFFD5
:10A084000390019B012202FA03F31946039800F09E
:10A0940069F800BF05B05DF804FB00B585B0019018
:10A0A40001AB1846FFF77AFF0390019B012202FAE5
:10A0B40003F31946039800F05FF800BF05B05DF89C
:10A0C40004FB00B585B0019001AB1846FFF766FFAD
:10A0D4000390039BD3F804350293029BDA43019B5C
:10A0E400012101FA03F31A40039BC3F80825019BDD
:10A0F40001229A40029B1A40039BC3F80C2500BF1F
:10A1040005B05DF804FB00B583B001900091009B9D
:10A11400002B03D10198FFF7C0FF02E00198FFF77D
:10A12400A8FF00BF03B05DF804FB00B585B0019043
:10A1340001AB1846FFF732FF0390039800F00AF8CA
:10A144000246019B22FA03F303F00103184605B00B
:10A154005DF804FB82B00190019BD3F804351846E6
:10A1640002B0704782B001900091019B009AC3F83D
:10A17400082500BF02B0704782B001900091019B96
:10A18400009AC3F80C2500BF02B0704700B585B033
:10A194000190019B032B03D911493A2001F0A8FE39
:10A1A400104A019B13441B781846FFF7BEFF034671
:10A1B400002B14BF012300238DF80F309DF80F30BE
:10A1C400002B14BF01230023DBB283F00103DBB2B5
:10A1D40003F00103DBB2184605B05DF804FB00BFD1
:10A1E40058EA020094EA020000B583B00190019B92
:10A1F400032B03D90749412001F07AFE064A019B4B
:10A2040013441B7800211846FFF77DFF00BF03B0FD
:10A214005DF804FB58EA020094EA020000B583B03A
:10A224000190019B032B03D90749472001F060FEED
:10A23400064A019B13441B7801211846FFF763FF6C
:10A2440000BF03B05DF804FB58EA020094EA020080
:10A2540000B583B00023019305E00198FFF7DEFF0A
:10A26400019B01330193019B032BF6D900BF00BF6F
:10A2740003B05DF804FB00B583B00023019305E04F
:10A284000198FFF7B1FF019B01330193019B032B5D
:10A29400F6D900BF00BF03B05DF804FB00B583B07E
:10A2A4000190019B032B03D907495F2001F020FE95
:10A2B400064A019B13441B781846FFF702FF00BFB0
:10A2C40003B05DF804FB00BF58EA020094EA020000
:10A2D40000B583B00023019309E0094A019B1344AC
:10A2E4001B781846FFF79FFE019B01330193019BE6
:10A2F400032BF2D9FFF7ACFF00BF03B05DF804FBFA
:10A3040094EA020000B583B0002301930AE0094AED
:10A31400019B13441B7803211846FFF795FE019B0C
:10A3240001330193019B032BF1D900BF00BF03B09C
:10A334005DF804FB98EA020084B001904FF0FF330B
:10A344000293002303930DE00A4A039B13441B78F2
:10A354001A46019B934202D1039B029305E0039B9F
:10A3640001330393039B032BEED9029B184604B0DD
:10A37400704700BF98EA020000B583B00190019BCA
:10A3840003F00103002B01D0FFF7A2FF019B03F0B0
:10A394000203002B01D0FFF7B5FF00BF03B05DF847
:10A3A40004FB000082B003468DF807309DF80730A7
:10A3B40003F01F0206499DF907305B09012000FAEA
:10A3C40002F2203341F8232000BF02B0704700BFDF
:10A3D40000E100E008B503F0ABF9034683F00103A4
:10A3E400DBB2002B03D10549792001F081FD00F097
:10A3F4008BFA034B00229A7000BF08BDA4EA020046
:10A404009420002000B583B000230193144B1B78E3
:10A41400002B02D0852301931CE0114B00229A608B
:10A424000F4B00225A600E4B00221A610C4B002283
:10A43400DA600C4800F02EFA019003F079F9034633
:10A4440083F00103DBB2002B01D000F049FA044B86
:10A4540001221A70019B184603B05DF804FB00BF8B
:10A464009420002041A5020084B00190019B1B6848
:10A474000393039B002B03D0039B1A68019B1A6070
:10A48400039B184604B0704700B583B0164B1B7885
:10A49400002B04D115494FF4857001F029FD124BAE
:10A4A400DB68002B04D1114940F20B1001F020FDB0
:10A4B40000238DF807300DF107031846FEF7C2F9A3
:10A4C400094BDB68013B084AD360074BDB68002B70
:10A4D40001D1FFF77FFF9DF807301846FEF7C8F952
:10A4E40000BF03B05DF804FB94200020A4EA02003E
:10A4F40000B585B003468DF807309DF80730002B72
:10A5040002D10C4B039301E00B4B03930398FFF729
:10A51400ABFF0290029B002B06D0029B5B689DF868
:10A52400072010469847F1E700BF00BF05B05DF86B
:10A5340004FB00BF9C200020A420002000B583B0B1
:10A5440003468DF807309DF80730002B05D10A4BE0
:10A5540001225A700020FFF7CBFF9DF80730012B32
:10A5640005D1054B01229A700120FFF7C1FF00BFFE
:10A5740003B05DF804FB00BF9420002000B583B055
:10A5840001900091019B002B05D1054B01225A70CB
:10A594000020FFF7ADFF00BF03B05DF804FB00BF70
:10A5A4009420002000B585B0034600918DF8073053
:10A5B4009DF80730032B29D0032B35DC002B02D068
:10A5C400012B04D030E00020FFF7ECFE2DE0002347
:10A5D4008DF80F300DF10F031846FEF733F9154BC4
:10A5E4001B7883F00103DBB2002B01D0FFF70AFFD5
:10A5F400104BDB6801330F4AD3600E4B01229A7073
:10A604009DF80F301846FEF733F90EE0094B1B781E
:10A61400002B04D1084940F2452001F069FC00F008
:10A624005FF9FFF731FF00E000BF00BF05B05DF840
:10A6340004FB00BF94200020A4EA020082B0034679
:10A644008DF807309DF8073003F01F0205499DF986
:10A6540007305B09012000FA02F241F8232000BF11
:10A6640002B0704700E100E082B003468DF8073085
:10A674009DF8073003F01F0206499DF907305B0976
:10A68400012000FA02F2603341F8232000BF02B037
:10A69400704700BF00E100E082B0034600918DF8EE
:10A6A40007309DF90730002B0CDA009BDAB20C4915
:10A6B4009DF8073003F00F03043B5201D2B20B4460
:10A6C4001A7609E0009BDAB206499DF90730520177
:10A6D400D2B20B4483F8002300BF02B0704700BF1E
:10A6E40000ED00E000E100E000B583B003460A4657
:10A6F4008DF8073013468DF806309DF80630012B8F
:10A7040003D99DF80630032B0BD99DF80630042B92
:10A7140003D99DF80630072B03D908496B2001F0B3
:10A72400E7FB9DF806209DF9073011461846FFF710
:10A73400B3FF00BF03B05DF804FB00BFECEA020006
:10A7440000B583B003468DF807309DF907301846ED
:10A75400FFF78AFF9DF907301846FFF76FFF00BF28
:10A7640003B05DF804FB000082B003468DF80730A7
:10A774000F4A9DF90730002B00DA1F335B115BB2DF
:10A7840052F823209DF90730594203F01F0301F0CA
:10A794001F0158BF4B425BB222FA03F303F00103DB
:10A7A400002B14BF01230023DBB2184602B070470C
:10A7B40000E100E082B001904FF08042019BC2F8BA
:10A7C400083300BF02B0704782B003468DF80730EB
:10A7D4009DF8073003F1804301221A6000BF02B0E4
:10A7E400704784B00346ADF80630BDF8063003F177
:10A7F400804300221A60BDF8063003F180431B68D1
:10A804000393039B00BF04B0704782B00346ADF8C6
:10A814000630BDF8063003F180431B68002B14BFDB
:10A8240001230023DBB2184602B0704782B00190C6
:10A834004FF08042019BC2F8183500BF02B0704748
:10A844004FF08043D3F818341B0C03F00103002BA2
:10A8540014BF01230023DBB21846704700B583B050
:10A8640006238DF807300020FFF77EFF034683F0B0
:10A874000103DBB2002B08D09DF8073019460020F5
:10A88400FFF732FF0020FFF75BFF00BF03B05DF866
:10A8940004FB000000B585B00190019B002B03D19F
:10A8A4000D49A22001F024FB002303930B4B1B79D9
:10A8B400002B02D08523039308E0084A019B136010
:10A8C400064B01221A71054B00225A71039B18464C
:10A8D40005B05DF804FB00BF24EB0200A8200020B3
:10A8E40008B5074B1B79002B03D10649BB2001F0A7
:10A8F400FFFAFFF7B3FF0120FFF798FF00BF08BD81
:10A90400A820002024EB020008B50A4B1B79002B79
:10A9140003D10949F22001F0EBFA0C20FFF754FFB0
:10A9240000BFFFF78DFF0346002BFAD100BF00BF25
:10A9340008BD00BFA820002024EB020008B54FF496
:10A944008070FFF762FF0346002B14D04FF4807031
:10A95400FFF747FF0120FFF72DFF114B5B7983F0D1
:10A964000103DBB2002B06D00D4B01225A710C4BB4
:10A974001B68002098474FF48270FFF746FF034698
:10A98400002B0AD04FF48270FFF72BFF0220FFF751
:10A9940011FF034B1B680120984700BF08BD00BF8F
:10A9A400A820002082B003468DF807309DF80730B8
:10A9B40003F01F0205499DF907305B09012000FAE5
:10A9C40002F241F8232000BF02B0704700E100E02A
:10A9D40082B003468DF807309DF8073003F01F025C
:10A9E40006499DF907305B09012000FA02F2603341
:10A9F40041F8232000BF02B0704700BF00E100E02F
:10AA040082B0034600918DF807309DF90730002B82
:10AA14000CDA009BDAB20C499DF8073003F00F03FF
:10AA2400043B5201D2B20B441A7609E0009BDAB21D
:10AA340006499DF907305201D2B20B4483F8002332
:10AA440000BF02B0704700BF00ED00E000E100E08D
:10AA540000B583B003460A468DF8073013468DF8D7
:10AA640006309DF80630012B03D99DF80630032BE0
:10AA74000BD99DF80630042B03D99DF80630072B1B
:10AA840003D908496B2001F033FA9DF806209DF99B
:10AA9400073011461846FFF7B3FF00BF03B05DF857
:10AAA40004FB00BF6CEB020000B583B003468DF8D5
:10AAB40007309DF907301846FFF78AFF9DF90730E4
:10AAC4001846FFF76FFF00BF03B05DF804FB00B545
:10AAD40083B00346ADF80630BDF80630184600F0E2
:10AAE40026F803461B68012B0CBF01230023DBB2AD
:10AAF400184603B05DF804FB00B585B00346ADF815
:10AB04000630BDF80630184600F011F803461A4620
:10AB140000231360BDF80630184600F008F8034619
:10AB24001B680393039B00BF05B05DF804FB82B070
:10AB34000346ADF80630BDF8063003F1804303F553
:10AB4400C043184602B0704782B00190034A019B8B
:10AB5400C2F8043300BF02B0704700BF0060004079
:10AB640082B00190034BD3F80423019B1340184691
:10AB740002B070470060004082B00190084A019B17
:10AB840003F5A27352F82330054943F00102019BF7
:10AB940003F5A27341F8232000BF02B0704700BF41
:10ABA4000060004084B00390029113468DF8073092
:10ABB400144A039B03F5A27352F82330114923F47A
:10ABC400473323F44073039A02F5A27241F822300A
:10ABD4000C4A039B03F5A27352F82320029B1B0229
:10ABE40003F4F8519DF807301B0403F440330B437E
:10ABF40004491A43039B03F5A27341F8232000BFC1
:10AC040004B070470060004082B00190054A019B87
:10AC140003F5A27352F823301B0A03F01F031846EE
:10AC240002B070470060004082B00190064A019B68
:10AC340003F5A27352F823301B0C03F00303DBB2B9
:10AC4400184602B0704700BF0060004000B583B0F2
:10AC54000190019B1B681F2B04D905494FF4E87030
:10AC640001F046F94FF0A043184603B05DF804FB29
:10AC74009CEB020000B585B00190084611461A46C7
:10AC840003468DF803300B468DF8023013468DF8D9
:10AC9400013001AB1846FFF7D9FF03909DF803205C
:10ACA4009DF802305B001A439DF801309B001A4363
:10ACB4009DF818301B0242EA03019DF81C301B0466
:10ACC400019A1943039B02F5E07243F8221000BF76
:10ACD40005B05DF804FB00B585B003900B468DF814
:10ACE4000B309DF80B3000220192002200920022CA
:10ACF40000210398FFF7BEFF00BF05B05DF804FB19
:10AD040000B585B0019001AB1846FFF79FFF039093
:10AD1400019A039B02F5E07253F8223023F00203F8
:10AD24000293019A039B02F5E072029943F8221000
:10AD340000BF05B05DF804FB00B585B001900B467B
:10AD44008DF8033001AB1846FFF780FF0390019A9A
:10AD5400039B02F5E07253F82230019A23F4403148
:10AD6400039B02F5E07243F82210019A039B02F55B
:10AD7400E07253F822309DF8032012041146019A20
:10AD84001943039B02F5E07243F8221000BF05B09B
:10AD94005DF804FB00B585B0019001AB1846FFF7E0
:10ADA40055FF0390039800F020F80246019B22FA15
:10ADB40003F303F00103184605B05DF804FB00B586
:10ADC40085B0019001AB1846FFF740FF0390019A4C
:10ADD400039B02F5E07253F822301B0C03F00303CB
:10ADE400DBB2184605B05DF804FB82B00190019B0C
:10ADF400D3F81035184602B07047000000B587B08C
:10AE04000390029101924FF0A0430493039A029B92
:10AE14001344012B04D9124940F2F12001F068F8DF
:10AE2400039B059311E0059B9B0006AA134453F86A
:10AE3400083C1846FFF7D9FF0246019B1A60019BA4
:10AE440004330193059B01330593039A029B134436
:10AE5400059A9A42E7D300BF00BF07B05DF804FB30
:10AE64009CEB020084B001900091009B0393019B32
:10AE7400DB080293019B03F0070301930122019B6A
:10AE840002FA03F30399029A0A441278134018460B
:10AE940004B0704784B001900091009B0393019B20
:10AEA400DB080293019B03F007030193039A029BBF
:10AEB40013441B785AB20121019B01FA03F35BB2DC
:10AEC400134359B2039A029B1344CAB21A7000BFC7
:10AED40004B0704782B001900C4A019B1344303394
:10AEE40093F90030002B09DB084A019B13443033EB
:10AEF40093F90030072B01DC012300E0002303F069
:10AF04000103DBB2184602B0704700BFB020002036
:10AF140082B00190064A019B1344303393F9003008
:10AF2400072BCCBF01230023DBB2184602B07047C5
:10AF3400B020002082B00190064A019B13443033B4
:10AF440093F90030DB43DBB2DB09DBB2184602B015
:10AF5400704700BFB020002084B00390029101929A
:10AF64008DF80330029B59B20E4A039B13443033CD
:10AF74000A461A700B49029B019A41F823209DF856
:10AF8400033083F00103DBB2002B08D0029B083BA3
:10AF9400039A51B2034A13440A4683F8502000BF6F
:10AFA40004B07047B020002082B00190044A019B95
:10AFB40013443033FF221A7000BF02B0704700BF41
:10AFC400B020002000B583B0019004490198FFF738
:10AFD40061FF00BF03B05DF804FB00BF0421002043
:10AFE40082B00190044A019B1344303393F900303A
:10AFF400184602B0704700BFB020002082B0019014
:10B00400034A019B52F82330184602B0704700BF30
:10B01400B020002000B589B00390029113468DF84A
:10B024000730FF238DF81F309DF80730002B01D027
:10B03400002300E0082305939DF80730002B01D07E
:10B04400082300E00C230493059B069314E00F4AA5
:10B05400069B52F82330B3F1FF3F0AD19DF8073025
:10B06400029A06990398FFF777FF069B8DF81F3025
:10B0740006E0069B01330693069A049B9A42E6D3A4
:10B084009DF91F30184609B05DF804FBB02000207C
:10B0940082B003468DF807309DF80730094A4FF017
:10B0A400FF3142F823109DF80730072B07D99DF88C
:10B0B4000730083B034A1344FF2283F8502000BFA3
:10B0C40002B07047B020002000B583B0254B93F840
:10B0D4005830002B03D008230193019B3EE000234A
:10B0E4008DF8033009E09DF803301846FFF75CFF44
:10B0F4009DF8033001338DF803309DF803301F2B86
:10B10400F1D900238DF8033009E09DF80330184687
:10B11400FFF7BEFF9DF8033001338DF803309DF82F
:10B1240003300B2BF1D9042200210F4802F048FE12
:10B1340006210620FFF78CFC0620FFF7B5FC4FF430
:10B14400BE70FFF7D9FC4FF00040FFF7FDFC054B44
:10B15400012283F8582000230193019B184603B071
:10B164005DF804FBB020002004210020044B93F878
:10B174005830002B14BF01230023DBB2184670475C
:10B18400B020002000B587B0039002910192039B88
:10B194001F2B04D936494FF4017000F0A9FE002397
:10B1A40005930398FFF7C6FE0346002B02D008233D
:10B1B400059357E0029B9B78C3F34003DBB21A4626
:10B1C40001990398FFF726FF03468DF813309DF984
:10B1D4001330B3F1FF3F43D0029B9B78C3F380034A
:10B1E400DBB283F00103DBB2002B13D0029B9B780C
:10B1F40003F00103DBB2002B03D00398FFF780FDBB
:10B2040005E0029B5B7819460398FFF764FD0398F9
:10B21400FFF7D8FE029B9B7803F00203DBB2002BFE
:10B2240008D09DF91300029B1B781A460399FFF777
:10B23400B9FC17E09DF91330083B0E4A134493F907
:10B244005010029B1B789B015AB29DF91330083BA6
:10B254000A4351B2074A13440A4683F8502001E0D6
:10B2640004230593059B184607B05DF804FB00BF53
:10B27400D4EB0200B020002000B589B001900B4649
:10B284008DF80330019B1F2B04D93D494FF40D70F9
:10B2940000F02EFE0198FFF74DFE0346002B04D16B
:10B2A400374940F2352000F023FE0198FFF730FEC5
:10B2B4000346002B2FD00198FFF792FE0346083B6C
:10B2C400304A134493F950308DF80F309DF80F3005
:10B2D4009B098DF80E309DF80E30032B0BD101988D
:10B2E400FFF758FD0346002B01D0032300E002239F
:10B2F4008DF81F3008E09DF80E30012B01D1022398
:10B3040000E003238DF81F309DF81F301946019883
:10B31400FFF712FD30E00198FFF7DCFD0346002B38
:10B324002AD00198FFF75CFE03460693069B9BB266
:10B3340040339BB29B00ADF81630069B1846FFF7CE
:10B344001BFCBDF816301846FFF7D6FB9DF80330FA
:10B35400002B11D00198FFF743FE03461846FFF770
:10B364004DFE0490049B002B06D00122069B02FA9A
:10B3740003F31846FFF7E8FB00BF09B05DF804FBD0
:10B38400D4EB0200B020002000B583B00190019BF3
:10B394001F2B04D9084940F2852000F0A9FD01982B
:10B3A400FFF7F8FC0346002B14BF01230023DBB294
:10B3B400184603B05DF804FBD4EB020000B595B069
:10B3C40000231093002303934FF48073ADF83A30B5
:10B3D4000123129300230F9321E0BDF83A3018465D
:10B3E400FFF775FB0346002B0ED01298FFF7B8FB4E
:10B3F4000346002B08D0BDF83A301846FFF77CFB13
:10B40400109A129B13431093129B5B001293BDF886
:10B414003A300433ADF83A300F9B01330F930F9B4E
:10B42400072BDAD94FF4BE70FFF751FB0346002B0C
:10B434000DD04FF4BE70FFF75FFB109B43F0004349
:10B44400109303AB1A4601210020FFF7D7FC109B91
:10B45400DBB2002B29D00123129300230F9321E0A8
:10B46400129A109B1340002B16D00F98FFF7CCFBB9
:10B474000D900F98FFF7D8FB03468DF833300F98E3
:10B48400FFF7BCFD0B900B9B002B05D09DF83320E0
:10B494000B9B11460D989847129B5B0012930F9BD0
:10B4A40001330F930F9B072BDAD9109B002B80F2EB
:10B4B400EE8000238DF84F30002302930023119374
:10B4C4000AE0119B9B0014AA13444FF0FF3243F887
:10B4D4004C2C119B01331193119B002BF1D00023B1
:10B4E4008DF84F3000230F9378E06B4A0F9B134481
:10B4F400503393F900308DF82B309DF82B3023F026
:10B50400C0030993644A0F9B1344503393F90030EA
:10B51400B3F1FF3F5FD001AB19460998FFF7A2FCD6
:10B524000346002B57D09DF82B309B098DF8233010
:10B534000998FFF755FD03461846FFF75FFD07908E
:10B54400079B002B03D19DF82330032B43D19DF897
:10B554002330032B04D102AB19460998FFF79AFC58
:10B564000998FFF72CFC03468DF81B3003AB1946F2
:10B574000998FFF777FC0590059B002B03D09DF8F5
:10B584001B30022B06D0059B002B24D19DF81B30C9
:10B59400032B20D19DF82330032B13D19DF81B30AE
:10B5A400022B01D1032300E002238DF813309DF810
:10B5B400133019460998FFF7BFFB9DF84F3001334C
:10B5C4008DF84F30079B002B05D09DF82320079B57
:10B5D4001146099898470F9B01330F930F9B032B38
:10B5E40083D99DF84F30002B4CD001238DF84E3079
:10B5F4006B461A4601210020FFF700FC002311933B
:10B6040014E0119B9B0014AA134453F8502C119B73
:10B614009B0014A90B4453F8443C9A4203D00023E2
:10B624008DF84E3005E0119B01331193119B002BD3
:10B63400E7D09DF84E30002B03D000238DF84F3017
:10B6440020E0002311931AE0119B9B0014AA1344D9
:10B6540053F8502C119B9B0014A90B4443F8442C21
:10B66400119B9B0014AA134453F8482C119B9B0074
:10B6740014A90B4443F84C2C119B01331193119BD7
:10B68400002BE1D09DF84F30002B7FF428AF00BF92
:10B6940015B05DF804FB00BFB020002008B5064BD0
:10B6A4001B68002B03D10549512000F021FC024BFB
:10B6B4001B68984700BF08BD0C21002020EC020045
:10B6C40000B587B003460A468DF8073013468DF857
:10B6D400063000238DF81730002304939DF80730BB
:10B6E4001846FEF729FE0490049B032B61D89DF8AD
:10B6F4000630022B52D0022B5EDC002B31D0012B02
:10B704005AD13649049A13465B0013440B441B7800
:10B714008DF817303149049A13465B0013440B44E7
:10B7240001331B78002B0ED02D4B2E4A4FF40041D1
:10B734001846FCF7BFFF0390039B002B03D1294A53
:10B744009DF8073013702549049A13465B0013448F
:10B754000B4402331978244A049B13440A461A7092
:10B764002AE01F4B1846FCF7D7FF1F4A049B1344DB
:10B7740019781A48049A13465B00134403440233AD
:10B784001B78994217D11549049A13465B00134458
:10B794000B4402331B788DF817300CE00F49049AE0
:10B7A40013465B0013440B4401331B788DF81730A8
:10B7B40002E000BF00E000BF9DF81730002B09D065
:10B7C4000A4B1B68002B05D0084B1B689DF81720FB
:10B7D4001046984700BF07B05DF804FB64210020C1
:10B7E400702100209021002094210020602100205D
:10B7F40000B583B00190019B1B7802211846FFF726
:10B804005FFF00BF03B05DF804FB000000B583B028
:10B814000C4B1B78002B0FD00023019308E0019BF5
:10B82400022B02D00198FEF7F9FC019B013301932E
:10B83400019B032BF3D901E0FEF70AFD00BF03B01F
:10B844005DF804FB1C2100202DE9F04F87B003466E
:10B854008DF80F300023059300230493D14B1B78FC
:10B86400002B04D0CF4B00221A70FFF7CFFF9DF8B6
:10B874000F30172B00F2298201A252F823F000BFE7
:10B88400E5B80200FDB80200FDB802008FB902005D
:10B894001DBA020091BA02001DBB02003DBB0200AA
:10B8A4004DBB02006BBB020089BB0200B5BB0200AA
:10B8B400D3BB0200E1BB0200E1BB0200E1BB02001A
:10B8C400E1BB0200E1BB020071BC02007FBC0200CC
:10B8D40093BC0200A7BC0200C1BC0200C1BC0200B0
:10B8E400FFF794FFB04B1846FCF716FF0590AF4ADC
:10B8F4009DF80F301370E9E10020FEF747FC034682
:10B90400002B0DD00020FEF789FC9DF80F30022B90
:10B9140002D14FF4E16301E04FF47A6304930BE046
:10B924000020FEF761FC9DF80F30022B01D1C823E3
:10B9340001E04FF4C87304939C4A9DF80F301370D0
:10B94400994C049B18464FF000014FF000024FF051
:10B954000003CB0343EA5043C20312F5FA7100918A
:10B9640043F1000301934FF47A724FF00003DDE9D1
:10B97400000102F037F902460B461346002219462D
:10B984002046FCF797FE0590A0E10020FEF7FEFBA1
:10B994000346002B0DD00020FEF740FC9DF80F302D
:10B9A400032B02D14FF4487301E04FF47A630493FC
:10B9B4000BE00020FEF718FC9DF80F30032B01D19B
:10B9C400C82301E04FF4C8730493784A9DF80F30FC
:10B9D4001370754C049B18464FF000014FF00002A1
:10B9E4004FF00003CB0343EA5043C20312F5FA7A43
:10B9F40043F1000B4FF47A724FF00003504659465E
:10BA040002F0F0F802460B4613460022194620467F
:10BA1400FCF750FE059059E10020FEF7B7FB034602
:10BA2400002B06D00020FEF7F9FB4FF47A63049351
:10BA340005E00020FEF7D8FB4FF4C87304935B4A7B
:10BA44009DF80F301370584C049B18464FF00001BA
:10BA54004FF000024FF00003CB0343EA5043C2030C
:10BA640012F5FA7843F100094FF47A724FF00003AB
:10BA74004046494602F0B6F802460B4613460022F9
:10BA840019462046FCF716FE05901FE10020FEF73C
:10BA94007DFB0346002B0CD00020FEF7BFFB9DF876
:10BAA4000F30052B01D1C82301E04FF47A630493CE
:10BAB4000BE00020FEF798FB9DF80F30052B01D119
:10BAC400C82301E04FF4C8730493384A9DF80F303B
